:020000040800F2
:1000000000000120410B0008750900087B09000869
:1000100081090008870900088D0900080000000018
:10002000000000000000000000000000930900082C
:10003000A109000800000000AF090008BD09000880
:10004000910B0008910B0008910B0008910B000820
:10005000910B0008910B0008910B0008910B000810
:10006000910B0008910B0008910B0008910B000800
:10007000910B0008910B0008910B0008910B0008F0
:10008000910B0008910B0008910B0008910B0008E0
:10009000910B0008910B0008910B0008910B0008D0
:1000A000910B0008910B0008910B0008910B0008C0
:1000B000910B0008910B0008910B0008910B0008B0
:1000C000910B0008910B0008910B0008910B0008A0
:1000D000910B0008910B0008910B0008910B000890
:1000E000910B0008910B0008910B0008910B000880
:1000F000910B0008910B0008910B0008910B000870
:10010000910B00080000000000000000910B0008A7
:10011000910B0008910B0008910B0008910B00084F
:10012000910B0008910B0008910B0008910B00083F
:10013000910B0008910B0008000000000000000077
:10014000910B0008910B0008910B000800000000C3
:10015000000000000000000000000000000000009F
:10016000910B0008910B0008910B0008910B0008FF
:10017000910B0008910B0008910B0008910B0008EF
:10018000910B0008910B0008000000000000000027
:04019000910B0008C7
:1001A00010B5054C237833B9044B13B10448AFF3B1
:1001B00000800123237010BD7000002000000000AB
:1001C000EC4A000808B5034B1BB103490348AFF3E1
:1001D000008008BD0000000074000020EC4A000808
:1001E00001F0FF01102A2BDB10F0070F08D010F8E8
:1001F000013B013A8B422DD010F0070F42B3F6D1EC
:10020000F0B441EA012141EA014122F007047FF004
:1002100000070023F0E80256083C85EA010586EA5B
:10022000010685FA47F5A3FA87F586FA47F6A5FA97
:1002300087F68EB9EED1F0BC01F0FF0102F00702A3
:1002400032B110F8013B013A83EA010313B1F8D14E
:100250000020704701387047002D06BF354603382F
:10026000073815F0010F07D1013015F4807F02BF68
:10027000013015F4C03F0130F0BC0138704700BFB9
:1002800080B487B000AF78603960FF23FB7500232E
:100290003B613A693B689A4222D27A683B691344CF
:1002A0001A78FB7D5340FB750023FB60FB68072B2E
:1002B00012D897F91730002B07DAFB7D5B005BB291
:1002C00083F031035BB2FB7502E0FB7D5B00FB75E5
:1002D000FB680133FB60E9E73B6901333B61D8E729
:1002E000FB7D18461C37BD465DF8047B7047000057
:1002F00080B582B000AF786006217868FFF7C0FF54
:100300000346002B14BF01230023DBB2002B0BD0CC
:1003100005217868FFF7B4FF034619467B685B79CF
:100320001A46084803F07AFC06217868FFF7A8FF10
:100330000346002B0CBF01230023DBB2184608370D
:10034000BD4680BD044B000880B584B000AF0B4BA8
:100350001B68FB60FB68BB6000F032FC72B600BF3C
:10036000074B1B687B607B6883F3088800BFBB6812
:10037000984700BF1037BD4680BD00BF046000082D
:100380000060000880B584B000AFF860B9607A60A2
:100390007B689AB24FF0FF33B968044802F00AFE56
:1003A0007B6818461037BD4680BD00BF8C0000201A
:1003B0002DE9B00F8DB000AF78627B6A03331B78F4
:1003C0001B06DA17BB61FA617B6A02331B781B04D8
:1003D000DA173B617A61BB69D7E90401024613EB86
:1003E0000208FB690A4643EB02097B6A01331B786A
:1003F0001B02DA17BB60FA60D7E902120B4618EB52
:100400000304134649EB03057B6A1B78DBB2002229
:100410009A46934614EB0A033B6045EB0B037B6063
:10042000D7E90034C7E90A34D7E90A231046194648
:100430003437BD46BDE8B00F7047000080B584B0CA
:1004400000AF786000F0ACFD124B00221A60114B37
:10045000114A5A607B68C3F30A03002B03D07B6800
:10046000DB0A013301E07B68DB0A0A4A936007F18B
:1004700008031946074800F047FE0346FB73FB7B61
:10048000002B0CBF01230023DBB218461037BD46FA
:1004900080BD00BF100100200060000890B58DB045
:1004A00000AF00F077FB00F0F1F800F091F900F0F8
:1004B0005BF90023BB610023FB6207F10C0142F2F0
:1004C00010730622674802F009FE0346002B0CBF9A
:1004D00001230023DBB2002B00F0B58007F10C03F1
:1004E0001846FFF705FF0346002B00F0A8803B7C71
:1004F000FA8902FB03F31846FFF7A0FF0346002B1F
:1005000000F09980FB89BB62BB6A002BC0F28D8032
:100510003B7C0133184603F03AFA03467B617B6962
:100520007B6079683B7C9BB201339AB24FF47A735B
:100530004C4802F0D3FD0346002B0CBF01230023DF
:10054000DBB2002B64D07B683A7C13441B783B728F
:1005500000237B623B7C1A467B6A93420BDA7A6803
:100560007B6A13441B7819463F4803F057FB7B6AAC
:1005700001337B62EEE73B7A19463C4803F04EFBC1
:100580003C7A7B683A7C11461846FFF779FE0346B1
:100590009C420CBF01230023DBB2002B29D0002397
:1005A0003B620023FB613B7C9B08DBB21A46FB6984
:1005B00093421ADAFB6A03F1006404F5C0447A68D6
:1005C0003B6A13441846FFF7F3FE02460B462146EA
:1005D000022000F075FCFB6A0433FB623B6A0433C3
:1005E0003B62FB690133FB61DDE7214803F09CFBC3
:1005F00011E03B7A1C467B683A7C11461846FFF7AF
:100600003FFE03461A4621461A4803F007FB02E064
:10061000194803F089FB7B69002B02D0786903F04D
:10062000B4F9BB6A013BBB626EE7144803F07CFB84
:10063000FFF78AFE0CE0124803F076FB08E0114851
:1006400003F072FB04E0104803F06EFBFFF77CFE42
:1006500020214FF0904000F09DFF4FF4FA6000F031
:1006600025FBF5E78C000020144B00081C4B00080C
:10067000244B0008284B00084C4B00085C4B00083A
:100680006C4B0008844B0008984B000880B5A6B05E
:1006900000AF07F1700328220021184603F0D6F9B5
:1006A00007F15C0300221A605A609A60DA601A61EE
:1006B0003B1D58220021184603F0C8F902233B676E
:1006C0000123FB671023C7F880300223C7F8883066
:1006D0004FF40043C7F88C304FF4E013C7F8903064
:1006E0000023C7F8943007F17003184600F06CFF40
:1006F0000346002B14BF01230023DBB2002B01D0E3
:1007000000F0CCF80F23FB6502233B6600237B66D9
:100710004FF48063BB660023FB6607F15C03022194
:10072000184601F0A5FF0346002B14BF0123002348
:10073000DBB2002B01D000F0B1F802237B60002374
:100740003B613B1D184602F0C9F90346002B14BF5C
:1007500001230023DBB2002B01D000F09FF800BF83
:100760009837BD4680BD000080B500AF164B174AD4
:100770001A60154B4FF461225A60134B00229A60A5
:10078000114B0022DA60104B00221A610E4B0C2232
:100790005A610D4B00229A610B4B0022DA610A4B21
:1007A00000221A62084B00225A62074802F0B4FB8A
:1007B0000346002B14BF01230023DBB2002B01D022
:1007C00000F06CF800BF80BD8C00002000440040A9
:1007D00080B58AB000AF07F1140300221A605A6096
:1007E0009A60DA601A612B4B5B692A4A43F4002352
:1007F0005361284B5B6903F400233B613B69254B44
:100800005B69244A43F480035361224B5B6903F420
:100810008003FB60FB681F4B5B691E4A43F4003397
:1008200053611C4B5B6903F40033BB60BB68194B1D
:100830005B69184A43F480235361164B5B6903F4E8
:1008400080237B607B68002220214FF0904000F0E5
:1008500089FE4FF400537B614FF40413BB61002306
:10086000FB6107F1140319460B4800F0F1FC20234B
:100870007B610123BB610023FB6100233B6207F125
:10088000140319464FF0904000F0E2FC00BF2837F7
:10089000BD4680BD001002400008004880B400AF93
:1008A00072B600BFFEE7000080B582B000AF0F4B0C
:1008B0009B690E4A43F0010393610C4B9B6903F063
:1008C00001037B607B68094BDB69084A43F0805376
:1008D000D361064BDB6903F080533B603B68072024
:1008E00000F0BAFA00BF0837BD4680BD00100240D4
:1008F00080B58AB000AF786007F1140300221A6057
:100900005A609A60DA601A617B681B68174A9342E2
:1009100028D1174BDB69164A43F40033D361144BDB
:10092000DB6903F400333B613B69114B5B69104A9F
:1009300043F4003353610E4B5B6903F40033FB60F7
:10094000FB680C237B610223BB610023FB61002356
:100950003B6207237B6207F1140319464FF0904076
:1009600000F076FC00BF2837BD4680BD0044004043
:100970000010024080B400AFFEE780B400AFFEE795
:1009800080B400AFFEE780B400AFFEE780B400AFF4
:10099000FEE780B400AF00BFBD465DF8047B704742
:1009A00080B400AF00BFBD465DF8047B704780B4E3
:1009B00000AF00BFBD465DF8047B704780B500AF57
:1009C00000F054F900BF80BD80B400AF0123184689
:1009D000BD465DF8047B704780B582B000AF78609B
:1009E000396002F0F9FF034616221A604FF0FF3318
:1009F00018460837BD4680BD80B582B000AF78602C
:100A00004FF0FF317868FFF7E7FFFEE780B586B06B
:100A100000AFF860B9607A6000237B610AE0AFF351
:100A200000800146BB685A1CBA60CAB21A707B6962
:100A300001337B617A697B689A42F0DB7B681846F8
:100A40001837BD4680BD80B483B000AF78604FF0EA
:100A5000FF3318460C37BD465DF8047B704780B401
:100A600083B000AF786039603B684FF400525A6041
:100A7000002318460C37BD465DF8047B704780B4F0
:100A800083B000AF7860012318460C37BD465DF88F
:100A9000047B704780B485B000AFF860B9607A60BD
:100AA000002318461437BD465DF8047B70470000EC
:100AB00080B586B000AF7860144A154BD31A7B61BD
:100AC0007B693B61134B1B68002B02D1114B124A0F
:100AD0001A60104B1A687B6813443A699A4207D22D
:100AE00002F07AFF03460C221A604FF0FF3309E050
:100AF000084B1B68FB60074B1A687B681344054A68
:100B00001360FB6818461837BD4680BD0000012001
:100B1000000400001C0100206001002080B400AF30
:100B2000064BD3F88830054A43F47003C2F8883086
:100B300000BFBD465DF8047B704700BF00ED00E0DC
:100B4000DFF834D00D480E490E4A002302E0D45895
:100B5000C4500433C4188C42F9D30B4A0B4C002305
:100B600001E013600432A242FBD3FFF7D7FF02F08B
:100B700039FFFFF793FCFEE7000001200000002092
:100B800070000020784C0008700000205C010020FC
:100B9000FEE7000080B500AF084B1B68074A43F032
:100BA00010031360032000F057F9002000F02EF826
:100BB000FFF77AFE0023184680BD00BF00200240E8
:100BC00080B500AF0C4B4FF0FF321A610A4B002288
:100BD0001A61094B4FF0FF32DA60074B0022DA60EE
:100BE000054B4FF0FF329A62034B00229A6200F0ED
:100BF00005F80023184680BD0010024080B400AF05
:100C000000BFBD465DF8047B7047000080B582B030
:100C100000AF7860124B1A68124B1B7819464FF4DC
:100C20007A73B3FBF1F3B2FBF3F3184600F03BF930
:100C30000346002B01D001230EE07B680F2B0AD85E
:100C4000002279684FF0FF3000F011F9064A7B6806
:100C50001360002300E0012318460837BD4680BD1D
:100C600000000020080000200400002080B400AF35
:100C7000064B1B781A46064B1B681344044A136044
:100C800000BFBD465DF8047B704700BF0800002030
:100C90002001002080B400AF034B1B681846BD46FE
:100CA0005DF8047B704700BF2001002080B584B050
:100CB00000AF7860FFF7EEFFB8607B68FB60FB6811
:100CC000B3F1FF3F05D00A4B1B781A46FB6813446B
:100CD000FB6000BFFFF7DEFF0246BB68D31AFA686D
:100CE0009A42F7D800BF00BF1037BD4680BD00BF95
:100CF0000800002080B485B000AF78607B6803F006
:100D00000703FB600C4BDB68BB60BA684FF6FF0360
:100D10001340BB60FB681A02BB68134343F0BF6318
:100D200043F40033BB60044ABB68D36000BF143790
:100D3000BD465DF8047B704700ED00E080B400AF75
:100D4000044BDB681B0A03F007031846BD465DF839
:100D5000047B704700ED00E080B483B000AF034631
:100D60003960FB7197F90730002B0ADB3B68DAB278
:100D70000C4997F907301201D2B20B4483F80023D3
:100D80000AE03B68DAB20849FB7903F00F03043B41
:100D90001201D2B20B441A7600BF0C37BD465DF883
:100DA000047B704700E100E000ED00E080B489B012
:100DB00000AFF860B9607A60FB6803F00703FB617D
:100DC000FB69C3F10703042B28BF0423BB61FB6944
:100DD0000433062B02D9FB69033B00E000237B614F
:100DE0004FF0FF32BB6902FA03F3DA43BB681A40E3
:100DF0007B699A404FF0FF317B6901FA03F3D943D5
:100E00007B680B40134318462437BD465DF8047BCE
:100E10007047000080B582B000AF78607B68013B0E
:100E2000B3F1807F01D301230FE00A4A7B68013BC5
:100E300053600F214FF0FF30FFF78EFF054B00226C
:100E40009A60044B07221A60002318460837BD46F3
:100E500080BD00BF10E000E080B582B000AF7860D8
:100E60007868FFF747FF00BF0837BD4680BD80B5F3
:100E700086B000AF0346B9607A60FB7300237B61E4
:100E8000FFF75CFF78617A68B9687869FFF78EFFD1
:100E9000024697F90F3011461846FFF75DFF00BF75
:100EA0001837BD4680BD80B582B000AF78607868E5
:100EB000FFF7B0FF034618460837BD4680BD000067
:100EC000F0B587B000AFF860B960C7E9002301232F
:100ED000FB750023BB7500237B752F4B1B7E012BFD
:100EE00001D1022354E02C4B01221A764CF25030EF
:100EF00000F098F80346FB75FB7D002B44D1FB689E
:100F0000012B02D101237B7507E0FB68022B02D184
:100F100002237B7501E004237B750023BB752DE064
:100F2000BB7D5A00BB6802EB030CBB7D1901D7E9FE
:100F30000023C1F12006A1F1200022FA01F403FAF6
:100F400006F6344323FA00F0044323FA01F5A3B272
:100F50001946604600F04AF84CF2503000F062F852
:100F60000346FB750D4B1B690C4A23F0010313610B
:100F7000FB7D002B07D1BB7D0133BB75BA7D7B7D2B
:100F80009A42CDD300E000BF034B00221A76FB7DCE
:100F900018461C37BD46F0BD280100200020024045
:100FA00080B483B000AF0023FB710D4B1B6903F0CD
:100FB0008003002B0DD00A4B0A4A5A60084B0A4A9C
:100FC0005A60074B1B6903F08003002B01D00123FB
:100FD000FB71FB7918460C37BD465DF8047B704702
:100FE0000020024023016745AB89EFCD80B483B078
:100FF00000AF78600B467B80084B0022DA61084B1B
:101000001B69074A43F0010313617B687A881A80E1
:1010100000BF0C37BD465DF8047B704728010020F7
:101020000020024080B584B000AF7860FFF732FE48
:10103000F86010E07B68B3F1FF3F0CD07B68002BB9
:1010400007D0FFF727FE0246FB68D31A7A689A4258
:1010500001D203231FE0124BDB6803F00103012BD5
:10106000E8D00F4BDB6803F02003202B02D10C4BA0
:101070002022DA600A4BDB6803F01003102B05D046
:10108000074BDB6803F00403042B03D100F00AF8DC
:10109000012300E0002318461037BD4680BD00BF85
:1010A0000020024080B483B000AF00237B60144B6B
:1010B000DB6803F01003102B09D1124BDB6943F0FE
:1010C0000203104AD3617B6843F010037B600C4B32
:1010D000DB6803F00403042B09D10A4BDB6943F0FE
:1010E0000103084AD3617B6843F004037B60044A30
:1010F0007B68D36000BF0C37BD465DF8047B70474A
:10110000002002402801002080B584B000AF786044
:1011100039600123FB730023BB602E4B1B7E012B28
:1011200001D1022352E02B4B01221A767B681B6807
:10113000012B15D14CF25030FFF774FF0346002B02
:1011400040D100F04BF84CF25030FFF76BFF0346F4
:10115000FB73214B1B69204A23F00403136131E028
:101160004CF25030FFF75EFF0346002B2AD13B685C
:101170004FF0FF321A607B685B68BB6019E0B868AB
:1011800000F046F84CF25030FFF74CFF0346FB737B
:10119000114B1B69104A23F002031361FB7B002BE8
:1011A00003D03B68BA681A600CE0BB6803F50063C3
:1011B000BB607B689B68DA027B685B681344BA6833
:1011C0009A42DCD3034B00221A76FB7B1846103779
:1011D000BD4680BD280100200020024080B400AF41
:1011E000094B0022DA61094B1B69084A43F00403EA
:1011F0001361064B1B69054A43F04003136100BFAE
:10120000BD465DF8047B70472801002000200240A5
:1012100080B483B000AF78600B4B0022DA610B4BD7
:101220001B690A4A43F002031361084A7B68536151
:10123000064B1B69054A43F04003136100BF0C379E
:10124000BD465DF8047B7047280100200020024065
:1012500080B487B000AF7860396000237B6160E1C3
:101260003B681A6801217B6901FA03F31340FB60B4
:10127000FB68002B00F052813B685B6803F00303BE
:10128000012B05D03B685B6803F00303022B30D1D0
:101290007B689B683B617B695B00032202FA03F376
:1012A000DB433A6913403B613B68DA687B695B006A
:1012B00002FA03F33A6913433B617B683A699A6027
:1012C0007B685B683B6101227B6902FA03F3DB43C5
:1012D0003A6913403B613B685B681B0903F00102FC
:1012E0007B6902FA03F33A6913433B617B683A690D
:1012F0005A603B685B6803F00303032B17D07B68DD
:10130000DB683B617B695B00032202FA03F3DB438A
:101310003A6913403B613B689A687B695B0002FA5B
:1013200003F33A6913433B617B683A69DA603B68CF
:101330005B6803F00303022B23D17B69DA087B6827
:10134000083253F822303B617B6903F007039B00AE
:101350000F2202FA03F3DB433A6913403B613B6817
:101360001A697B6903F007039B0002FA03F33A69E9
:1013700013433B617B69DA087B680832396943F8BB
:1013800022107B681B683B617B695B00032202FAC9
:1013900003F3DB433A6913403B613B685B6803F04E
:1013A00003027B695B0002FA03F33A6913433B6172
:1013B0007B683A691A603B685B6803F44033002B32
:1013C00000F0AC805E4B9B695D4A43F00103936182
:1013D0005B4B9B6903F00103BB60BB68594A7B69A7
:1013E0009B08023352F823303B617B6903F003030F
:1013F0009B000F2202FA03F3DB433A6913403B617F
:101400007B68B3F1904F25D07B684F4A93421FD041
:101410007B684E4A934219D07B684D4A934213D061
:101420007B684C4A93420DD07B684B4A934207D06D
:101430007B684A4A934201D106230CE007230AE065
:10144000052308E0042306E0032304E0022302E06E
:10145000012300E000237A6902F003029200934026
:101460003A6913433B6137497B699B0802333A6908
:1014700041F823203A4B1B683B61FB68DB433A6928
:1014800013403B613B685B6803F48033002B03D05F
:101490003A69FB6813433B61314A3B691360304B47
:1014A0005B683B61FB68DB433A6913403B613B6827
:1014B0005B6803F40033002B03D03A69FB681343E5
:1014C0003B61274A3B695360254B9B683B61FB6846
:1014D000DB433A6913403B613B685B6803F480136C
:1014E000002B03D03A69FB6813433B611C4A3B69FC
:1014F00093601B4BDB683B61FB68DB433A6913403D
:101500003B613B685B6803F40013002B03D03A692E
:10151000FB6813433B61124A3B69D3607B6901332B
:101520007B613B681A687B6922FA03F3002B7FF426
:1015300097AE00BF00BF1C37BD465DF8047B704707
:10154000001002400000014000040048000800486C
:10155000000C004800100048001400480018004823
:101560000004014080B483B000AF78600B467B80FC
:1015700013467B707B78002B03D07A887B689A6156
:1015800002E07A887B689A6200BF0C37BD465DF83E
:10159000047B704780B485B000AF78600B467B80D9
:1015A0007B685B69FB607A88FB6813401A04FB6800
:1015B000D9437B880B401A437B689A6100BF14377C
:1015C000BD465DF8047B704780B5ADF5027D00AF88
:1015D00007F50273A3F50173186007F50273A3F50D
:1015E00001731B68002B02D1012301F03AB807F503
:1015F0000273A3F501731B681B6803F00103002B42
:1016000000F06F81B54B5B6803F00C03042B0CD02A
:10161000B24B5B6803F00C03082B5CD1AF4B5B68EB
:1016200003F4C033B3F5803F55D14FF40033C7F80E
:10163000F431D7F8F43193FAA3F3C7F8F031D7F8BF
:10164000F031B3FA83F3DBB25B09DBB243F00103A1
:10165000DBB2012B02D1A14B1B6815E04FF4003324
:10166000C7F8EC31D7F8EC3193FAA3F3C7F8E831B7
:101670004FF40033C7F8E431D7F8E43193FAA3F319
:10168000C7F8E031954B5B6A4FF40032C7F8DC21B4
:10169000D7F8DC2192FAA2F2C7F8D821D7F8D821DE
:1016A000B2FA82F2D2B242F02002D2B202F01F02AB
:1016B000012101FA02F21340002B00F0118107F51D
:1016C0000273A3F501731B685B68002B40F008816F
:1016D000012300F0C6BF07F50273A3F501731B6871
:1016E0005B68B3F5803F06D17C4B1B687B4A43F4B3
:1016F0008033136036E007F50273A3F501731B68AE
:101700005B68002B0CD1754B1B68744A23F4803343
:101710001360724B1B68714A23F48023136021E02D
:1017200007F50273A3F501731B685B68B3F5A02F7F
:101730000CD16A4B1B68694A43F480231360674BE2
:101740001B68664A43F4803313600BE0634B1B68ED
:10175000624A23F480331360604B1B685F4A23F4B2
:101760008023136007F50273A3F501731B685B68A0
:10177000002B59D0FFF78EFAC7F800020AE0FFF7F6
:1017800089FA0246D7F80032D31A642B02D9032310
:1017900000F067BF4FF40033C7F8D431D7F8D43125
:1017A00093FAA3F3C7F8D031D7F8D031B3FA83F363
:1017B000DBB25B09DBB243F00103DBB2012B02D1E8
:1017C000464B1B6815E04FF40033C7F8CC31D7F80F
:1017D000CC3193FAA3F3C7F8C8314FF40033C7F8FC
:1017E000C431D7F8C43193FAA3F3C7F8C0313B4BE7
:1017F0005B6A4FF40032C7F8BC21D7F8BC2192FADB
:10180000A2F2C7F8B821D7F8B821B2FA82F2D2B260
:1018100042F02002D2B202F01F02012101FA02F2CC
:101820001340002BABD05CE0FFF734FAC7F800029E
:101830000AE0FFF72FFA0246D7F80032D31A642BDA
:1018400002D9032300F00DBF4FF40033C7F8B431C1
:10185000D7F8B43193FAA3F3C7F8B031D7F8B03161
:10186000B3FA83F3DBB25B09DBB243F00103DBB213
:10187000012B02D1194B1B6815E04FF40033C7F858
:10188000AC31D7F8AC3193FAA3F3C7F8A8314FF4D1
:101890000033C7F8A431D7F8A43193FAA3F3C7F8FB
:1018A000A0310E4B5B6A4FF40032C7F89C21D7F889
:1018B0009C2192FAA2F2C7F89821D7F89821B2FA9F
:1018C00082F2D2B242F02002D2B202F01F02012113
:1018D00001FA02F21340002BABD102E000100240EB
:1018E00000BF07F50273A3F501731B681B6803F0C3
:1018F0000203002B00F07F81A74B5B6803F00C0311
:10190000002B0CD0A44B5B6803F00C03082B73D1A5
:10191000A14B5B6803F4C033B3F5004F6CD10223D5
:10192000C7F89431D7F8943193FAA3F3C7F89031FC
:10193000D7F89031B3FA83F3DBB25B09DBB243F043
:101940000103DBB2012B02D1934B1B6813E002238E
:10195000C7F88C31D7F88C3193FAA3F3C7F88831E4
:101960000223C7F88431D7F8843193FAA3F3C7F878
:101970008031894B5B6A0222C7F87C21D7F87C2131
:1019800092FAA2F2C7F87821D7F87821B2FA82F257
:10199000D2B242F02002D2B202F01F02012101FABB
:1019A00002F21340002B0AD007F50273A3F501736E
:1019B0001B68DB68012B02D0012300F052BE764B7E
:1019C0001B6823F0F80207F50273A3F501731B6887
:1019D0001B69F821C7F87411D7F8741191FAA1F1B5
:1019E000C7F87011D7F87011B1FA81F1C9B28B4004
:1019F000694913430B60FEE007F50273A3F5017319
:101A00001B68DB68002B00F088800123C7F86C316D
:101A1000D7F86C3193FAA3F3C7F86831D7F8683177
:101A2000B3FA83F3DBB203F1845303F584139B0011
:101A30001A4601231360FFF72DF9C7F800020AE0E8
:101A4000FFF728F90246D7F80032D31A022B02D941
:101A5000032300F006BE0223C7F86431D7F86431CF
:101A600093FAA3F3C7F86031D7F86031B3FA83F380
:101A7000DBB25B09DBB243F00103DBB2012B02D125
:101A8000454B1B6813E00223C7F85C31D7F85C3183
:101A900093FAA3F3C7F858310223C7F85431D7F8A3
:101AA000543193FAA3F3C7F850313B4B5B6A0222DF
:101AB000C7F84C21D7F84C2192FAA2F2C7F8482176
:101AC000D7F84821B2FA82F2D2B242F02002D2B262
:101AD00002F01F02012101FA02F21340002BAFD0E5
:101AE0002D4B1B6823F0F80207F50273A3F5017371
:101AF0001B681B69F821C7F84411D7F8441191FA03
:101B0000A1F1C7F84011D7F84011B1FA81F1C9B27B
:101B10008B40214913430B606DE00123C7F83C3132
:101B2000D7F83C3193FAA3F3C7F83831D7F83831F6
:101B3000B3FA83F3DBB203F1845303F584139B0000
:101B40001A4600231360FFF7A5F8C7F800020AE061
:101B5000FFF7A0F80246D7F80032D31A022B02D9B9
:101B6000032300F07EBD0223C7F83431D7F83431A7
:101B700093FAA3F3C7F83031D7F83031B3FA83F3CF
:101B8000DBB25B09DBB243F00103DBB2012B05D111
:101B9000014B1B6816E000BF001002400223C7F88B
:101BA0002C31D7F82C3193FAA3F3C7F8283102234C
:101BB000C7F82431D7F8243193FAA3F3C7F82031BA
:101BC000BF4B5B6A0222C7F81C21D7F81C2192FA8E
:101BD000A2F2C7F81821D7F81821B2FA82F2D2B2CD
:101BE00042F02002D2B202F01F02012101FA02F2F9
:101BF0001340002BACD107F50273A3F501731B68EA
:101C00001B6803F00803002B00F0138107F5027333
:101C1000A3F501731B685B69002B7CD00123C7F817
:101C20001431D7F8143193FAA3F3C7F81031D7F869
:101C30001031B3FA83F3DBB21A46A24B13449B0074
:101C40001A4601231360FFF725F8C7F800020AE0DF
:101C5000FFF720F80246D7F80032D31A022B02D938
:101C6000032300F0FEBC0223C7F80C31D7F80C3177
:101C700093FAA3F207F50273A3F580731A6007F5D0
:101C80000273A3F5827302221A6007F50273A3F5AB
:101C900082731B6893FAA3F207F50273A3F58473AA
:101CA0001A6007F50273A3F5867302221A6007F51E
:101CB0000273A3F586731B6893FAA3F207F5027308
:101CC000A3F588731A607E4B5A6A07F50273A3F571
:101CD0008A730221196007F50273A3F58A731B68E2
:101CE00093FAA3F107F50273A3F58C73196007F556
:101CF0000273A3F58C731B68B3FA83F3DBB243F072
:101D00006003DBB203F01F03012101FA03F3134068
:101D1000002B9DD08DE007F50273A3F58E73012291
:101D20001A6007F50273A3F58E731B6893FAA3F28A
:101D300007F50273A3F590731A6007F50273A3F514
:101D400090731B68B3FA83F3DBB21A465D4B1344FE
:101D50009B001A4600231360FEF79CFFC7F80002A1
:101D60000AE0FEF797FF0246D7F80032D31A022B9B
:101D700002D9032300F075BC07F50273A3F5927333
:101D800002221A6007F50273A3F592731B6893FA97
:101D9000A3F207F50273A3F594731A6007F50273B3
:101DA000A3F5967302221A6007F50273A3F59673E2
:101DB0001B6893FAA3F207F50273A3F598731A60F0
:101DC00007F50273A3F59A7302221A6007F50273EE
:101DD000A3F59A731B6893FAA3F207F50273A3F5B0
:101DE0009C731A60364B5A6A07F50273A3F59E730B
:101DF0000221196007F50273A3F59E731B6893FA1D
:101E0000A3F107F50273A3F5A073196007F5027338
:101E1000A3F5A0731B68B3FA83F3DBB243F060034E
:101E2000DBB203F01F03012101FA03F31340002B7F
:101E300097D107F50273A3F501731B681B6803F0C4
:101E40000403002B00F0A581002387F807321C4B08
:101E5000DB6903F08053002B16D1194BDB69184A5C
:101E600043F08053D361164BDB6903F0805207F5D2
:101E70000273A3F5FE731A6007F50273A3F5FE73F0
:101E80001B68012387F807320F4B1B6803F480732C
:101E9000002B21D10C4B1B680B4A43F48073136059
:101EA000FEF7F8FEC7F8000210E0FEF7F3FE024668
:101EB000D7F80032D31A642B08D90323D1E300BF2B
:101EC0000010024020819010007000408D4B1B6874
:101ED00003F48073002BE8D007F50273A3F50173B8
:101EE0001B689B68012B06D1874B1B6A864A43F00F
:101EF0000103136235E007F50273A3F501731B6854
:101F00009B68002B0CD1804B1B6A7F4A23F0010396
:101F100013627D4B1B6A7C4A23F00403136220E0AA
:101F200007F50273A3F501731B689B68052B0CD1A1
:101F3000754B1B6A744A43F004031362724B1B6AAD
:101F4000714A43F0010313620BE06F4B1B6A6E4A48
:101F500023F0010313626C4B1B6A6B4A23F00403EA
:101F6000136207F50273A3F501731B689B68002BCE
:101F700000F08180FEF78EFEC7F800020BE0FEF74E
:101F800089FE0246D7F80032D31A41F288329342D2
:101F900001D9032365E307F50273A3F5A2730222B7
:101FA0001A6007F50273A3F5A2731B6893FAA3F2F4
:101FB00007F50273A3F5A4731A6007F50273A3F57E
:101FC000A67302221A6007F50273A3F5A6731B68B5
:101FD00093FAA3F207F50273A3F5A8731A6007F545
:101FE0000273A3F5A8731B68B3FA83F3DBB25B0932
:101FF000DBB243F00203DBB2022B02D1424B1B6A7D
:1020000013E007F50273A3F5AA7302221A6007F51D
:102010000273A3F5AA731B6893FAA3F207F5027380
:10202000A3F5AC731A60384B5B6A07F50272A2F530
:10203000AE720221116007F50272A2F5AE7212684B
:1020400092FAA2F107F50272A2F5B072116007F5DB
:102050000272A2F5B0721268B2FA82F2D2B242F003
:102060004002D2B202F01F02012101FA02F2134033
:10207000002B84D083E0FEF70DFEC7F800020BE0D2
:10208000FEF708FE0246D7F80032D31A41F2883232
:10209000934201D90323E4E207F50273A3F5B27377
:1020A00002221A6007F50273A3F5B2731B6893FA54
:1020B000A3F207F50273A3F5B4731A6007F5027370
:1020C000A3F5B67302221A6007F50273A3F5B6737F
:1020D0001B6893FAA3F207F50273A3F5B8731A60AD
:1020E00007F50273A3F5B8731B68B3FA83F3DBB289
:1020F0005B09DBB243F00203DBB2022B06D1024BD9
:102100001B6A17E0007000400010024007F50273E0
:10211000A3F5BA7302221A6007F50273A3F5BA7326
:102120001B6893FAA3F207F50273A3F5BC731A6058
:10213000B34B5B6A07F50272A2F5BE720221116011
:1021400007F50272A2F5BE72126892FAA2F107F5C3
:102150000272A2F5C072116007F50272A2F5C07298
:102160001268B2FA82F2D2B242F04002D2B202F067
:102170001F02012101FA02F21340002B80D197F8CF
:102180000732012B05D19E4BDB699D4A23F080531A
:10219000D36107F50273A3F501731B689B69002BDC
:1021A00000F05E82964B5B6803F00C03082B00F096
:1021B0001F8207F50273A3F501731B689B69022B4D
:1021C00040F0708107F50273A3F5C2734FF080727F
:1021D0001A6007F50273A3F5C2731B6893FAA3F2A2
:1021E00007F50273A3F5C4731A6007F50273A3F52C
:1021F000C4731B68B3FA83F3DBB203F1845303F5B2
:1022000084139B001A4600231360FEF743FDC7F8B2
:10221000000209E0FEF73EFD0246D7F80032D31A6D
:10222000022B01D903231CE207F50273A3F5C67341
:102230004FF000721A6007F50273A3F5C6731B68AE
:1022400093FAA3F207F50273A3F5C8731A6007F5B2
:102250000273A3F5C8731B68B3FA83F3DBB25B099F
:10226000DBB243F00103DBB2012B02D1644B1B68EC
:1022700027E007F50273A3F5CA734FF000721A60E6
:1022800007F50273A3F5CA731B6893FAA3F207F567
:102290000273A3F5CC731A6007F50273A3F5CE732E
:1022A0004FF000721A6007F50273A3F5CE731B6836
:1022B00093FAA3F207F50273A3F5D0731A60504B9B
:1022C0005B6A07F50272A2F5D2724FF000711160DD
:1022D00007F50272A2F5D272126892FAA2F107F51E
:1022E0000272A2F5D472116007F50272A2F5D472DF
:1022F0001268B2FA82F2D2B242F02002D2B202F0F6
:102300001F02012101FA02F21340002B82D13C4B43
:10231000DB6A23F00F0207F50273A3F501731B6854
:102320005B6A37491343CB62354B5B6823F4761203
:1023300007F50273A3F501731B68196A07F50273A9
:10234000A3F501731B68DB690B432D4913434B60F5
:1023500007F50273A3F5D6734FF080721A6007F584
:102360000273A3F5D6731B6893FAA3F207F5027301
:10237000A3F5D8731A6007F50273A3F5D8731B6829
:10238000B3FA83F3DBB203F1845303F584139B00A8
:102390001A4601231360FEF77DFCC7F8000209E02E
:1023A000FEF778FC0246D7F80032D31A022B01D987
:1023B000032356E107F50273A3F5DA734FF00072B9
:1023C0001A6007F50273A3F5DA731B6893FAA3F298
:1023D00007F50273A3F5DC731A6007F50273A3F522
:1023E000DC731B68B3FA83F3DBB25B09DBB243F047
:1023F0000103DBB2012B05D1014B1B682AE000BFB2
:102400000010024007F50273A3F5DE734FF000726F
:102410001A6007F50273A3F5DE731B6893FAA3F243
:1024200007F50273A3F5E0731A6007F50273A3F5CD
:10243000E2734FF000721A6007F50273A3F5E273BE
:102440001B6893FAA3F207F50273A3F5E4731A600D
:10245000864B5B6A07F50272A2F5E6724FF00071D7
:10246000116007F50272A2F5E672126892FAA2F103
:1024700007F50272A2F5E872116007F50272A2F583
:10248000E8721268B2FA82F2D2B242F02002D2B2FC
:1024900002F01F02012101FA02F21340002B3FF467
:1024A0007FAFDDE007F50273A3F5EA734FF08072AA
:1024B0001A6007F50273A3F5EA731B6893FAA3F297
:1024C00007F50273A3F5EC731A6007F50273A3F521
:1024D000EC731B68B3FA83F3DBB203F1845303F5A7
:1024E00084139B001A4600231360FEF7D3FBC7F842
:1024F000000209E0FEF7CEFB0246D7F80032D31AFD
:10250000022B01D90323ACE007F50273A3F5EE73A8
:102510004FF000721A6007F50273A3F5EE731B68A3
:1025200093FAA3F207F50273A3F5F0731A6007F5A7
:102530000273A3F5F0731B68B3FA83F3DBB25B0994
:10254000DBB243F00103DBB2012B02D1474B1B6826
:1025500027E007F50273A3F5F2734FF000721A60DB
:1025600007F50273A3F5F2731B6893FAA3F207F55C
:102570000273A3F5F4731A6007F50273A3F5F673FB
:102580004FF000721A6007F50273A3F5F6731B682B
:1025900093FAA3F207F50273A3F5F8731A60334BAD
:1025A0005B6A07F50272A2F5FA724FF000711160D2
:1025B00007F50272A2F5FA72126892FAA2F107F513
:1025C0000272A2F5FC72116007F50272A2F5FC72AC
:1025D0001268B2FA82F2D2B242F02002D2B202F013
:1025E0001F02012101FA02F21340002B82D137E0D1
:1025F00007F50273A3F501731B689B69012B01D1D9
:1026000001232EE0194B5B68C7F8FC31174BDB6ADE
:10261000C7F8F831D7F8FC3103F4C03207F502737C
:10262000A3F501731B68DB699A4217D1D7F8FC3117
:1026300003F4701207F50273A3F501731B681B6A9C
:102640009A420BD1D7F8F83103F00F0207F5027365
:10265000A3F501731B685B6A9A4201D0012300E075
:102660000023184607F50277BD4680BD00100240E2
:1026700080B59EB000AF7860396000237B677B68CF
:10268000002B01D1012362E1904B1B6803F007038B
:102690003A689A4210D98D4B1B6823F007028B4988
:1026A0003B6813430B60894B1B6803F007033A68D0
:1026B0009A4201D001234AE17B681B6803F00203C0
:1026C000002B08D0824B5B6823F0F0027B689B688C
:1026D0007F4913434B607B681B6803F00103002BA9
:1026E00000F0DC807B685B68012B3CD14FF4003349
:1026F0003B673B6F93FAA3F3FB66FB6EB3FA83F37E
:10270000DBB25B09DBB243F00103DBB2012B02D188
:102710006F4B1B680FE04FF40033BB66BB6E93FA40
:10272000A3F37B664FF400333B663B6E93FAA3F34F
:10273000FB65674B5B6A4FF40032BA65BA6D92FA7B
:10274000A2F27A657A6DB2FA82F2D2B242F0200237
:10275000D2B202F01F02012101FA02F21340002B53
:102760007BD10123F3E07B685B68022B3CD14FF007
:1027700000733B653B6D93FAA3F3FB64FB6CB3FA08
:1027800083F3DBB25B09DBB243F00103DBB2012B65
:1027900002D14F4B1B680FE04FF00073BB64BB6C62
:1027A00093FAA3F37B644FF000733B643B6C93FAA2
:1027B000A3F3FB63464B5B6A4FF00072BA63BA6BDC
:1027C00092FAA2F27A637A6BB2FA82F2D2B242F051
:1027D0002002D2B202F01F02012101FA02F21340DC
:1027E000002B3AD10123B2E002233B633B6B93FA07
:1027F000A3F3FB62FB6AB3FA83F3DBB25B09DBB2E0
:1028000043F00103DBB2012B02D1314B1B680DE019
:102810000223BB62BB6A93FAA3F37B6202233B628F
:102820003B6A93FAA3F3FB61294B5B6A0222BA610C
:10283000BA6992FAA2F27A617A69B2FA82F2D2B2F3
:1028400042F02002D2B202F01F02012101FA02F28C
:102850001340002B01D1012379E01D4B5B6823F06D
:1028600003027B685B681A4913434B60FEF712FA58
:1028700078670AE0FEF70EFA02467B6FD31A41F240
:102880008832934201D9032361E0114B5B6803F066
:102890000C027B685B689B009A42EBD10B4B1B6878
:1028A00003F007033A689A4214D2084B1B6823F0DE
:1028B000070206493B6813430B60044B1B6803F097
:1028C00007033A689A4205D0012340E00020024005
:1028D000001002407B681B6803F00403002B08D043
:1028E0001D4B5B6823F4E0627B68DB681A49134385
:1028F0004B607B681B6803F00803002B09D0164B64
:102900005B6823F460527B681B69DB001249134348
:102910004B6000F029F801460F4B5B6803F0F003B1
:10292000F0223A613A6992FAA2F2FA60FA68B2FACF
:1029300082F2D2B2D340094AD35C21FA03F3084AA7
:102940001360084B1B681846FEF760F90023184611
:102950007837BD4680BD00BF00100240A04B000884
:10296000000000200400002080B48BB000AF0023E2
:10297000FB610023BB6100237B6200237B6100239A
:102980003B622A4B5B68FB61FB6903F00C03042B81
:1029900002D0082B03D03FE0254B3B623FE0FB69B0
:1029A00003F470134FF47012BA60BA6892FAA2F28C
:1029B0007A607A68B2FA82F2D2B2D3401D4AD35C0E
:1029C0007B611A4BDB6A03F00F030F223A613A690D
:1029D00092FAA2F2FA60FA68B2FA82F2D2B2D34064
:1029E000154AD35CBB61FB6903F48033002B08D02C
:1029F0000F4ABB69B2FBF3F27B6902FB03F37B6214
:102A000007E00B4ABB69B2FBF3F27B6902FB03F3FD
:102A10007B627B6A3B6202E0054B3B6200BF3B6A24
:102A200018462C37BD465DF8047B70470010024005
:102A300000127A00B84B0008C84B000880B400AF01
:102A4000034B1B681846BD465DF8047B704700BF0A
:102A50000000002080B582B000AFFFF7EFFF014615
:102A60000B4B5B6803F4E0634FF4E0627A607A68D2
:102A700092FAA2F23A603A68B2FA82F2D2B2D34043
:102A8000044AD35C21FA03F318460837BD4680BDDB
:102A900000100240B04B000880B582B000AFFFF7D5
:102AA000CDFF01460B4B5B6803F460534FF460525B
:102AB0007A607A6892FAA2F23A603A68B2FA82F2DE
:102AC000D2B2D340044AD35C21FA03F31846083744
:102AD000BD4680BD00100240B04B000880B592B0EA
:102AE00000AF786000233B640023FB63002387F87A
:102AF00047307B681B6803F48033002B00F0D480E0
:102B00004E4BDB6903F08053002B0ED14B4BDB693E
:102B10004A4A43F08053D361484BDB6903F080534A
:102B2000BB60BB68012387F84730454B1B6803F443
:102B30008073002B18D1424B1B68414A43F48073C9
:102B40001360FEF7A7F8386408E0FEF7A3F8024622
:102B50003B6CD31A642B01D90323D6E1384B1B6895
:102B600003F48073002BF0D0344B1B6A03F44073E2
:102B7000FB63FB6B002B00F084807B685B6803F4D5
:102B80004073FA6B9A427CD02C4B1B6A23F440733F
:102B9000FB634FF480333B633B6B93FAA3F3FB621D
:102BA000FB6AB3FA83F3DBB21A46264B13449B004D
:102BB0001A46012313604FF48033BB63BB6B93FA57
:102BC000A3F37B637B6BB3FA83F3DBB21A461D4B33
:102BD00013449B001A4600231360184AFB6B1362D0
:102BE000FB6B03F00103002B4BD0FEF753F8386466
:102BF0000AE0FEF74FF802463B6CD31A41F28832E6
:102C0000934201D9032380E10223BB62BB6A93FA9A
:102C1000A3F37B6202233B623B6A93FAA3F3FB615B
:102C2000FB69B3FA83F3DBB25B09DBB243F0020367
:102C3000DBB2022B08D1014B1B6A0DE000100240F1
:102C400000700040008190100223BB61BB6993FAC1
:102C5000A3F37B619A4B5B6A02223A613A6992FA6A
:102C6000A2F2FA60FA68B2FA82F2D2B242F04002FC
:102C7000D2B202F01F02012101FA02F21340002B2E
:102C8000B7D08F4B1B6A23F440727B685B688C491A
:102C900013430B6297F84730012B05D1884BDB6952
:102CA000874A23F08053D3617B681B6803F00103DC
:102CB000002B08D0824B1B6B23F003027B689B68C0
:102CC0007F4913430B637B681B6803F00203002BEF
:102CD00008D07B4B1B6B23F440327B68DB68784960
:102CE00013430B637B681B6803F00403002B08D0BD
:102CF000734B1B6B23F440227B681B6970491343A1
:102D00000B637B681B6803F02003002B08D06C4B1F
:102D10001B6B23F010027B68DB69694913430B636B
:102D20007B681B6803F40033002B08D0644B5B689E
:102D300023F480027B685B6D614913434B607B68C1
:102D40001B6803F04003002B08D05D4B1B6B23F086
:102D500020027B681B6A5A4913430B637B681B681C
:102D600003F48023002B08D0554B1B6B23F040024B
:102D70007B685B6A524913430B637B681B6803F0F3
:102D80000803002B08D04E4B1B6B23F440127B68CA
:102D90005B694B4913430B637B681B6803F01003AB
:102DA000002B08D0464B1B6B23F440027B689B69C9
:102DB000434913430B637B681B6803F40073002BC8
:102DC00008D03F4B5B6823F400027B681B6B3C49D7
:102DD00013434B607B681B6803F08003002B08D013
:102DE000374BDB6A23F4F8727B689B6A34491343E0
:102DF000CB627B681B6803F48073002B08D0304BD8
:102E0000DB6A23F478527B68DB6A2D491343CB627B
:102E10007B681B6803F48053002B08D0284B1B6B86
:102E200023F480727B685B6B254913430B637B68DB
:102E30001B6803F40053002B08D0214B1B6B23F4B9
:102E400000727B681B6C1E4913430B637B681B6815
:102E500003F48013002B08D0194B1B6B23F08072F6
:102E60007B689B6B164913430B637B681B6803F4F9
:102E70000013002B08D0124B1B6B23F000727B68F1
:102E8000DB6B0F4913430B637B681B6803F4800300
:102E9000002B08D00A4B1B6B23F480627B685B6CB1
:102EA000074913430B637B681B6803F40003002B83
:102EB0000CD0034B1B6B23F400627B6802E000BF65
:102EC000001002409B6C134913430B637B681B6823
:102ED00003F08073002B08D00E4B1B6B23F40052C1
:102EE0007B68DB6C0B4913430B637B681B6803F047
:102EF0000073002B08D0074B1B6B23F400427B6848
:102F00001B6D044913430B63002318464837BD4625
:102F100080BD00BF0010024080B582B000AF786075
:102F20007B68002B01D1012340E07B689B6F002B65
:102F300006D17B68002283F874207868FDF7D8FCFE
:102F40007B6824229A677B681B681A687B681B6809
:102F500022F001021A60786800F092F90346012B12
:102F600001D1012322E07B685B6A002B02D07868E4
:102F700000F05CFB7B681B685A687B681B6822F466
:102F800090425A607B681B689A687B681B6822F0D5
:102F90002A029A607B681B681A687B681B6842F08B
:102FA00001021A60786800F0E3FB03461846083710
:102FB000BD4680BD80B58AB002AFF860B9603B60A5
:102FC0001346FB80FB689B6F202B40F08280BB6820
:102FD000002B02D0FB88002B01D101237AE0FB6893
:102FE00093F87430012B01D1022373E0FB680122B6
:102FF00083F87420FB680022C3F88020FB6821223C
:103000009A67FDF747FE7861FB68FA88A3F85020BD
:10301000FB68FA88A3F85220FB689B68B3F5805FD1
:1030200008D1FB681B69002B04D10023FB61BB683E
:10303000BB6103E0BB68FB610023BB61FB6800224E
:1030400083F874202DE03B6800937B690022802187
:10305000F86800F0D6FB0346002B01D0032339E0CB
:10306000FB69002B0BD1BB691A88FB681B68C2F394
:10307000080292B21A85BB690233BB6108E0FB69A2
:103080001A78FB681B6892B21A85FB690133FB61F1
:10309000FB68B3F852309BB2013B9AB2FB68A3F8CD
:1030A0005220FB68B3F852309BB2002BCBD13B6867
:1030B00000937B6900224021F86800F0A2FB0346E0
:1030C000002B01D0032305E0FB6820229A67002330
:1030D00000E0022318462037BD4680BD80B58AB087
:1030E00002AFF860B9603B601346FB80FB68DB6FA2
:1030F000202B40F0BF80BB68002B02D0FB88002B48
:1031000001D10123B7E0FB6893F87430012B01D1A2
:103110000223B0E0FB68012283F87420FB680022E0
:10312000C3F88020FB682222DA67FB6800221A6657
:10313000FDF7B0FD7861FB68FA88A3F85820FB68BA
:10314000FA88A3F85A20FB689B68B3F5805F0ED11C
:10315000FB681B69002B05D1FB6840F2FF12A3F846
:103160005C202DE0FB68FF22A3F85C2028E0FB68D0
:103170009B68002B0DD1FB681B69002B04D1FB68F9
:10318000FF22A3F85C201BE0FB687F22A3F85C20F1
:1031900016E0FB689B68B3F1805F0DD1FB681B698B
:1031A000002B04D1FB687F22A3F85C2008E0FB68B9
:1031B0003F22A3F85C2003E0FB680022A3F85C2018
:1031C000FB68B3F85C307B82FB689B68B3F5805F7B
:1031D00008D1FB681B69002B04D10023FB61BB688D
:1031E000BB6103E0BB68FB610023BB61FB6800229D
:1031F00083F8742033E03B6800937B690022202130
:10320000F86800F0FEFA0346002B01D0032332E0F9
:10321000FB69002B0CD1FB681B689B8C9AB27B8AE4
:1032200013409AB2BB691A80BB690233BB610DE0DF
:10323000FB681B689B8C9BB2DAB27B8ADBB21340C3
:10324000DAB2FB691A70FB690133FB61FB68B3F802
:103250005A309BB2013B9AB2FB68A3F85A20FB6834
:10326000B3F85A309BB2002BC5D1FB682022DA6735
:10327000002300E0022318462037BD4680BD000031
:1032800080B588B000AF78600023BB777B689A6810
:103290007B681B691A437B685B691A437B68DB693F
:1032A00013437B617B681B681A68924B13407A68F2
:1032B000126879690B4313607B681B685B6823F4B1
:1032C00040517B68DA687B681B680A435A607B68F8
:1032D0009B697B617B681B6A7A6913437B617B68AE
:1032E0001B689B6823F430617B681B687A690A431A
:1032F0009A607B681B68804A934220D17F4B1B6B8E
:1033000003F00303032B17D801A252F823F000BFE8
:10331000213300082D330008333300082733000819
:103320000123FB77B5E00223FB77B2E00423FB77B0
:10333000AFE00823FB77ACE01023FB77A9E07B68C4
:103340001B686F4A934224D16C4B1B6B03F44033D0
:10335000B3F5403F11D0B3F5403F17D8B3F5003F68
:1033600011D0B3F5003F11D8002B03D0B3F5803F47
:1033700006D00BE00023FB778BE00223FB7788E08D
:103380000423FB7785E00823FB7782E01023FB779B
:103390007FE07B681B685B4A934224D1574B1B6BD1
:1033A00003F44023B3F5402F11D0B3F5402F17D8C5
:1033B000B3F5002F11D0B3F5002F11D8002B03D097
:1033C000B3F5802F06D00BE00023FB7761E00223EA
:1033D000FB775EE00423FB775BE00823FB7758E094
:1033E0001023FB7755E07B681B68474A934224D142
:1033F000424B1B6B03F44013B3F5401F11D0B3F5E0
:10340000401F17D8B3F5001F11D0B3F5001F11D816
:10341000002B03D0B3F5801F06D00BE00023FB7711
:1034200037E00223FB7734E00423FB7731E0082305
:10343000FB772EE01023FB772BE07B681B68334A79
:10344000934224D12D4B1B6B03F44003B3F5400F83
:1034500011D0B3F5400F17D8B3F5000F11D0B3F565
:10346000000F11D8002B03D0B3F5800F06D00BE06E
:103470000023FB770DE00223FB770AE00423FB77B0
:1034800007E00823FB7704E01023FB7701E010231B
:10349000FB777B68DB69B3F5004F6CD1FB7F082BB2
:1034A00038D801A252F823F0CD340008D5340008F2
:1034B000DD34000815350008E33400081535000830
:1034C0001535000815350008EB340008FFF7C2FA7F
:1034D000B86124E0FFF7E0FAB86120E00C4BBB6173
:1034E0001DE0FFF741FAB86119E04FF40043BB61FA
:1034F00015E000BFF369FFEF003801400010024003
:103500000044004000480040004C00400050004093
:1035100000127A000023BB610123BB7700BFBB69A7
:10352000002B75D0BB695A007B685B685B081A4446
:103530007B685B68B2FBF3F39BB23B613B690F2B8B
:1035400016D93B69B3F5803F12D23B699BB223F099
:103550000F03FB813B695B089BB203F007039AB240
:10356000FB891343FB817B681B68FA89DA604FE0B3
:103570000123BB774CE0FB7F082B28D801A252F82F
:1035800023F000BFA9350008B1350008B93500089F
:10359000CF350008BF350008CF350008CF3500080B
:1035A000CF350008C7350008FFF754FAB86113E0BB
:1035B000FFF772FAB8610FE01B4BBB610CE0FFF73D
:1035C000D3F9B86108E04FF40043BB6104E0002385
:1035D000BB610123BB7700BFBB69002B18D07B68A0
:1035E0005B685A08BB691A447B685B68B2FBF3F3FB
:1035F0009BB23B613B690F2B08D93B69B3F5803F18
:1036000004D27B681B683A69DA6001E00123BB776A
:103610007B6800225A667B6800229A66BB7F184648
:103620002037BD4680BD00BF00127A0080B483B051
:1036300000AF78607B685B6A03F00103002B0AD05F
:103640007B681B685B6823F400317B689A6A7B683F
:103650001B680A435A607B685B6A03F00203002B15
:103660000AD07B681B685B6823F480317B68DA6A68
:103670007B681B680A435A607B685B6A03F004033B
:10368000002B0AD07B681B685B6823F480217B6871
:103690001A6B7B681B680A435A607B685B6A03F09D
:1036A0000803002B0AD07B681B685B6823F4004189
:1036B0007B685A6B7B681B680A435A607B685B6A4D
:1036C00003F01003002B0AD07B681B689B6823F46F
:1036D00080517B689A6B7B681B680A439A607B68A1
:1036E0005B6A03F02003002B0AD07B681B689B6891
:1036F00023F400517B68DA6B7B681B680A439A608D
:103700007B685B6A03F04003002B1AD07B681B6860
:103710005B6823F480117B681A6C7B681B680A4322
:103720005A607B681B6CB3F5801F0AD17B681B68ED
:103730005B6823F4C0017B685A6C7B681B680A4392
:103740005A607B685B6A03F08003002B0AD07B68B9
:103750001B685B6823F400217B689A6C7B681B689C
:103760000A435A6000BF0C37BD465DF8047B7047C2
:1037700080B586B002AF78607B680022C3F88020F5
:10378000FDF788FAF8607B681B681B6803F0080384
:10379000082B0ED16FF07E430093FB6800224FF49C
:1037A0000011786800F02DF80346002B01D00323A8
:1037B00023E07B681B681B6803F00403042B0ED115
:1037C0006FF07E430093FB6800224FF4800178681D
:1037D00000F017F80346002B01D003230DE07B68AF
:1037E00020229A677B682022DA677B6800221A66AB
:1037F0007B68002283F87420002318461037BD46EA
:1038000080BD80B59CB000AFF860B9603B601346E6
:10381000FB71A5E0BB6FB3F1FF3F00F0A180FDF7A6
:1038200039FA02463B68D31ABA6F9A4202D3BB6F89
:10383000002B3ED1FB681B683B653B6D53E8003FA6
:10384000FB64FB6C23F4D0737B66FB681B681A4631
:103850007B6EFB65BA65B96DFA6D41E800237B6547
:103860007B6D002BE6D1FB681B680833FB63FB6BA9
:1038700053E8003FBB63BB6B23F001033B66FB686F
:103880001B6808333A6EBA647B64796CBA6C41E8A1
:1038900000233B643B6C002BE5D1FB6820229A6738
:1038A000FB682022DA67FB68002283F87420032378
:1038B00067E0FB681B681B6803F00403002B4FD014
:1038C000FB681B68DB6903F40063B3F5006F47D145
:1038D000FB681B684FF400621A62FB681B68BB62DE
:1038E000BB6A53E8003F7B627B6A23F4D073FB66BC
:1038F000FB681B681A46FB6E7B633A63396B7A6B15
:1039000041E80023FB62FB6A002BE6D1FB681B68E1
:1039100008337B617B6953E8003F3B613B6923F0DF
:103920000103BB66FB681B680833BA6E3A62FB6131
:10393000F9693A6A41E80023BB61BB69002BE5D114
:10394000FB6820229A67FB682022DA67FB68202246
:10395000C3F88020FB68002283F87420032310E062
:10396000FB681B68DA69BB681340BA689A420CBFEF
:1039700001230023DBB21A46FB799A423FF44AAF97
:10398000002318467037BD4680BD00F002B800F035
:1039900002B800F053B8012838BF012010B5044622
:1039A000204600F043F830B900F006F808B900F0FE
:1039B0000BF88047F4E710BD024B1868BFF35B8F2C
:1039C000704700BF4801002008B5062000F0ECF960
:1039D0000120FDF711F80000014B1868704700BF87
:1039E0000C00002070B50D4D0D4C641BA41000267A
:1039F000A64209D10B4D0C4C01F078F8641BA410C1
:103A00000026A64205D170BD55F8043B9847013603
:103A1000EEE755F8043B98470136F2E7704C000892
:103A2000704C0008704C0008744C0008024B0146B2
:103A3000186800F07FB800BF0C000020024B014660
:103A4000186800F00BB800BF0C00002002440346C9
:103A5000934200D1704703F8011BF9E737B50029FD
:103A600044D051F8043C0190002BA1F10404B8BFEC
:103A7000E41800F095FC1E4A0198136833B963609E
:103A8000146003B0BDE8304000F090BCA34208D9F8
:103A9000256861198B4201BF19685B68491921606B
:103AA000EDE71A465B680BB1A342FAD911685518C5
:103AB000A5420BD1246821445418A3421160E0D1DF
:103AC0001C685B68536021441160DAE702D90C235B
:103AD0000360D6E7256861198B4204BF19685B68EB
:103AE000636004BF491921605460CAE703B030BD68
:103AF0004C01002070B50E4E0C463168054611B9D8
:103B000000F01AF930602146284600F015F9431CF0
:103B10000AD0C41C24F00304A04207D0211A28466E
:103B200000F00AF9013001D14FF0FF34204670BD9A
:103B3000500100202DE9F041CD1C25F0030508358A
:103B40000C2D38BF0C25002D074601DBA94205D9F5
:103B50000C233B6000263046BDE8F0812E4E00F07D
:103B60001FFC33681C4634BB29463846FFF7C2FFAA
:103B7000431C04464DD134682646002E40D12368AC
:103B80003146384604EB030800F0D6F880453AD1B8
:103B9000216803356D1A25F0030508350C2D38BF53
:103BA0000C2529463846FFF7A5FF01302BD02368A6
:103BB0002B4423600EE02268521B1ED40B2A16D918
:103BC0006119A342256018BF5960636808BF31605E
:103BD00062514B60384604F10B0600F0E7FB26F01B
:103BE0000706231DF21AB6D09B1BA350B3E76268E9
:103BF000A3420CBF32605A60ECE723466468B2E728
:103C000034467668B9E70C233B60384600F0CEFBBB
:103C1000A1E72560DEE700BF4C0100200FB40A4B8E
:103C200013B51C6824B1A36913B9204600F0B2FA99
:103C300005AB049AA1680193204600F0E7FB02B0AF
:103C4000BDE8104004B070470C00002070B50E466F
:103C5000054618B183690BB900F09CFAAB69AC68F2
:103C600013B9284600F096FA2C4B9C4220D16C6880
:103C7000636EDB0705D4A389980502D4A06D00F01C
:103C800027FBA38919071DD52369DBB1013EA36872
:103C900016F8011F013BA36039BB002B38DA22461E
:103CA0000A21284600F09CF8013011D00A2511E0C5
:103CB0001B4B9C4201D1AC68DAE71A4B9C4208BF0F
:103CC000EC68D5E72146284600F0DCF80028DDD076
:103CD0004FF0FF35636EDA0705D4A3899B0502D444
:103CE000A06D00F0F6FA284670BD002B04DAA26938
:103CF0009A4206DC0A2904D023685A1C22601970F3
:103D0000C5E72246284600F06BF80130BFD1DFE757
:103D100023680A255A1C22601D70DBE7FC4B000853
:103D20001C4C0008DC4B0008024B01461868FFF7EA
:103D30008DBF00BF0C00002038B5064D002304469F
:103D400008462B60FCF7B4FE431C02D12B6803B17C
:103D5000236038BD580100201F2938B504460D46A0
:103D600004D9162303604FF0FF3038BD426C12B106
:103D700052F821304BB9204600F030F82A4601466F
:103D80002046BDE8384000F017B8012B0AD0591C76
:103D900003D1162303600120E7E7002442F8254001
:103DA000284698470020E0E7024B01461868FFF7D5
:103DB000D3BF00BF0C00002038B5074D00230446D8
:103DC000084611462B60FCF707FE431C02D12B6806
:103DD00003B1236038BD00BF58010020FCF7F4BDDB
:103DE000F8B50E461446054618B183690BB900F0C4
:103DF000D1F9214B9C422BD16C68A369A360A389A4
:103E00001A072FD523696BB323692068C01A636929
:103E1000F6B28342374604DC2146284600F026F9F4
:103E200030BBA368013BA36023685A1C22601E704C
:103E300063690130834204D0A389DB0706D50A2ECB
:103E400004D12146284600F011F988B93846F8BD5A
:103E50000A4B9C4201D1AC68CFE7094B9C4208BF9A
:103E6000EC68CAE72146284600F00CF80028CBD0C1
:103E70004FF0FF37EAE700BFFC4B00081C4C00087E
:103E8000DC4B0008324B70B51D6806460C4625B168
:103E9000AB6913B9284600F07DF92E4B9C420FD137
:103EA0006C68A389B4F90C2019072CD4DD0611D451
:103EB0000923336042F04003A3814FF0FF303EE01E
:103EC000254B9C4201D1AC68EBE7244B9C4208BFD8
:103ED000EC68E6E7580712D5616B41B104F1440381
:103EE000994202D03046FFF7B9FD00236363A389EE
:103EF00023F02403A3810023636023692360A38943
:103F000043F00803A38123694BB9A38903F4207309
:103F1000B3F5007F03D02146304600F001FAA089B6
:103F2000B4F90C2010F001030AD00023A3606369E8
:103F30005B42A361236943B910F08000BAD170BD20
:103F4000810758BF6369A360F4E70020F7E700BF6B
:103F50000C000020FC4B00081C4C0008DC4B000847
:103F60008A892DE9F041054610070C4658D44B6864
:103F7000002B05DC0B6C002B02DC0020BDE8F0817F
:103F8000E66A002EF9D0002312F480522F682B60CD
:103F900032D0606DA3895A0705D56368C01A636B78
:103FA0000BB1236CC01A00230246E66A216A284638
:103FB000B047431CA38906D129681D292CD82A4A59
:103FC000CA40D60728D500226260D904226922603F
:103FD00004D5421C01D12B6803B96065616B2F6069
:103FE0000029CAD004F14403994202D02846FFF7C1
:103FF00035FD00206063C1E7216A01232846B047F0
:10400000411CC7D12B68002BC4D01D2B01D0162B0F
:1040100001D12F60B1E7A38943F04003A381ADE74D
:104020000F69002FA9D093070E6808BF4B690F6076
:1040300018BF0023A6EB07088B60B8F1000F9CDDCA
:10404000216AA66A43463A462846B047002806DC5D
:10405000A38943F04003A3814FF0FF308EE707446C
:10406000A8EB0008E9E700BF0100402038B50B6964
:1040700005460C4613B90025284638BD18B183699A
:104080000BB900F087F8144B9C421BD16C68B4F953
:104090000C30002BEFD0626ED00704D4990502D407
:1040A000A06D00F015F928462146FFF759FF636E11
:1040B000DA070546E0D4A3899B05DDD4A06D00F0A6
:1040C00008F9D9E7054B9C4201D1AC68DFE7044B06
:1040D0009C4208BFEC68DAE7FC4B00081C4C000867
:1040E000DC4B0008002310B50446C0E90033C0E9EA
:1040F0000433836081814366C2818361194608224B
:104100005C30FFF7A3FC054B6362054BA362054BD4
:10411000E362054B2462236310BD00BF954900088C
:10412000B7490008EF490008134A0008014900F0A8
:10413000AFB800BF6D40000870B568224D1E5543F2
:104140000E4605F17401FFF7F5FC044640B100216D
:10415000C0E900160C30A06005F16802FFF776FC9C
:10416000204670BD014800F0B3B800BF55010020E3
:10417000014800F0AEB800BF55010020014800F032
:10418000A7B800BF56010020014800F0A2B800BF48
:104190005601002010B50446FFF7F0FFA3691BB1DC
:1041A000BDE81040FFF7F0BFC4E912332365134B9D
:1041B000134A1B68A262A34204BF0123A3612046E5
:1041C00000F020F86060204600F01CF8A060204657
:1041D00000F018F80022E06004216068FFF782FF19
:1041E000A06801220921FFF77DFFE0680222122169
:1041F000FFF778FF0123A361D2E700BFD84B000887
:104200002D410008F8B50746FFF7ACFF1E4B1E68AE
:10421000B36913B93046FFF7BDFF4836D6E901341C
:10422000013B03D533680BB33668F7E7B4F90C509C
:10423000D5B9164BE36004F15800656600F047F805
:10424000FFF796FFC4E90155C4E904552560A5614F
:104250000822294604F15C00FFF7F8FBC4E90D557C
:10426000C4E912552046F8BD6834D9E70421384620
:10427000FFF762FF044630600028D5D1FFF778FFD2
:104280000C233B60EEE700BFD84B00080100FFFFA6
:104290002DE9F8430646884600F148040027D4E992
:1042A0000195B9F1010905D52468002CF7D13846EC
:1042B000BDE8F883AB89012B07D9B5F90E3001337E
:1042C00003D029463046C04707436835E9E77047C1
:1042D0007047704770B50E46B1F90E10002996B0C0
:1042E00014461D4608DAB6F90C3000222A601A0678
:1042F00010D44FF480630EE06A4600F0B1FB002852
:10430000F1DB019A02F47042A2F500535A425A417D
:104310002A60EEE740230020236016B070BD000045
:104320008B8973B59D0706460C4607D504F14703F4
:10433000236023610123636102B070BD01AB6A4653
:10434000FFF7C8FF009905463046FFF7F3FB48B971
:10435000B4F90C309A05EFD423F0030343F00203C1
:10436000A381E3E70D4BB362A389206043F0800390
:10437000A381009B6361019B20615BB1B4F90E10C6
:10438000304600F07FFB28B1A38923F0030343F0FC
:104390000103A381A0890543A581CDE72D41000834
:1043A0000148FFF795BF00BF540100200148FFF707
:1043B00090BF00BF540100209368013B002B10B454
:1043C000936008DA9469A34201DB0A2903D15DF8FE
:1043D000044BFFF705BD1368581C106019700846A0
:1043E0005DF8044B7047F8B506460F461446D518DD
:1043F000AC4201D1002007E014F8011B3A463046D8
:10440000FFF7DAFF431CF3D1F8BD00002DE9F04FB0
:104410000D469DB014469846064618B183690BB9FF
:10442000FFF7B8FE894B9D421BD175686B6ED907AB
:1044300005D4AB899A0502D4A86DFFF749FFAB8973
:104440001B0701D52B69EBB929463046FFF71AFD4A
:10445000C0B16B6EDC070ED54FF0FF301DB0BDE86C
:10446000F08F7B4B9D4201D1B568DFE7794B9D42D0
:1044700008BFF568DAE7AB899805EDD4A86DFFF7BA
:1044800028FFE9E70023099320238DF82930CDF890
:104490000C803023DFF8C0818DF82A304FF00109FD
:1044A00023469A4613F8012B0AB1252AF9D1BAEB13
:1044B000040B0BD05B46224629463046FFF793FF9C
:1044C000013000F0AA80099A5A4409929AF8003003
:1044D000002B00F0A28000234FF0FF32CDE905232E
:1044E0000AF1010A049307938DF853301A93544646
:1044F000052214F8011B5848FBF772FE049AD8B93C
:10450000D10644BF20238DF85330130744BF2B231B
:104510008DF853309AF800302A2B15D0079A54465C
:1045200000204FF00A0C214611F8013B303B092BCB
:104530004ED9B0B1079214E0A0EB080309FA03F3D7
:1045400013430493A246D2E7039B191D1B680391F2
:10455000002BBBBF5B4242F0020207930793B8BF38
:10456000049223782E2B0CD163782A2B35D1039B10
:104570001A1D1B680392002BB8BF4FF0FF330234A3
:104580000593DFF8E4A0217803225046FBF728FECC
:1045900040B14023A0EB0A0003FA00F0049B034360
:1045A0000134049314F8011B2C488DF828100622BE
:1045B000FBF716FE00283FD0294B1BBB039B07339C
:1045C00023F0070308330393099B3B44099367E7F0
:1045D0000CFB02320C460120A5E7002301340593B1
:1045E00019464FF00A0C204610F8012B303A092AE0
:1045F00003D9002BC5D00591C3E70CFB012104466C
:104600000123F0E703AB00932A46164B04A930467A
:10461000AFF300800746781CD6D16B6ED90705D45E
:10462000AB899A0502D4A86DFFF753FEAB895B06F0
:104630003FF512AF099811E703AB00932A46094BE7
:1046400004A9304600F080F8E4E700BFFC4B000806
:104650001C4C0008DC4B00083C4C0008464C000891
:1046600000000000E7430008424C00082DE9F04735
:10467000164699468A680B69DDF820809342B8BFD8
:104680001346336091F8432007460C460AB10133C4
:1046900033602368990642BF33680233336025686C
:1046A00015F0060506D104F1190AE36832689B1A71
:1046B000AB4226DC94F84320131E226818BF012366
:1046C00092062BD404F1430249463846C0470130D4
:1046D0001ED02368E568326803F00603042B08BF88
:1046E000AD1AA36822690CBF25EAE575002593423F
:1046F000C4BF9B1AED1800261A34B5421AD1002007
:1047000008E00123524649463846C047013003D1EC
:104710004FF0FF30BDE8F0870135C6E7E1185A1CBD
:10472000302081F84300224494F8451082F8431069
:104730000233C7E70123224649463846C0470130C5
:10474000E6D00136D9E700002DE9FF470F7E0C9D2A
:10475000782F914680460C469A4601F1430207D8CD
:10476000622F0AD8002F00F0D880582F00F0A380C5
:1047700004F1420584F842703AE0A7F16303152B77
:10478000F6D801A151F823F0E1470008F5470008E9
:104790007147000871470008714700087147000819
:1047A000F547000871470008714700087147000885
:1047B000714700080149000825480008E34800083F
:1047C0007147000871470008234900087147000835
:1047D000254800087147000871470008EB480008A9
:1047E0002B681A1D1B682A6004F1420584F84230C8
:1047F0000123A3E020682968060601F104030AD515
:104800000E682B60002E03DA2D23764284F84330A5
:104810005E480A2319E00E682B6010F0400F18BFA5
:1048200036B2EFE72B682068191D2960010601D513
:104830001E6802E04606FBD51E8854486F2F0CBF49
:1048400008230A23002184F843106568A560002D21
:10485000A2BF216821F0040121600EB9002D4DD0C6
:104860001546B6FBF3F103FB1167C75D05F8017D43
:104870003746BB420E46F4D9082B0BD12368DE071E
:1048800008D5236961689942DEBF302305F8013CF1
:1048900005F1FF35521B2261CDF800A04B4603AA5B
:1048A00021464046FFF7E2FE01304CD14FF0FF3089
:1048B00004B0BDE8F087354881F845702968236861
:1048C00051F8046B29601D0614D5DF0744BF43F07F
:1048D000200323601EB9236823F0200323601023E4
:1048E000B0E7236843F0200323607823284884F846
:1048F0004530E3E7590648BFB6B2E6E71546BBE7E1
:104900002B6826686169181D286035061B6801D56B
:10491000196002E07006FBD519800023236115465B
:10492000BAE72B681A1D2A601D68626800212846B4
:10493000FBF756FC08B1401B6060636823610023ED
:1049400084F84330A8E723692A4649464046D047C1
:104950000130ABD023689B0713D4E068039B9842D7
:10496000B8BF1846A4E70123324649464046D0471F
:1049700001309BD00135E36803995B1AAB42F2DC4E
:10498000EBE7002504F11906F5E700BF4D4C0008E0
:104990005E4C000810B50C46B1F90E1000F094F80A
:1049A0000028ABBF636DA3891B1823F48053ACBFF1
:1049B0006365A38110BD2DE9F0411F468B89DB059E
:1049C00005460C46164605D5B1F90E100223002205
:1049D00000F068F8A389B4F90E1023F48053A38182
:1049E00032463B462846BDE8F04100F017B810B506
:1049F0000C46B1F90E1000F055F8431CA38915BF01
:104A0000606523F4805343F48053A38118BFA381CE
:104A100010BDB1F90E1000F013B8000038B5074D05
:104A200004460846114600222A601A46FBF7AAFCF3
:104A3000431C02D12B6803B1236038BD580100200C
:104A400038B5064D0023044608462B60FBF7FBFFF4
:104A5000431C02D12B6803B1236038BD58010020EC
:104A600038B5074D00230446084611462B60FBF776
:104A7000F6FF431C02D12B6803B1236038BD00BF91
:104A80005801002038B5064D0023044608462B6027
:104A9000FBF7F5FF431C02D12B6803B1236038BD3F
:104AA0005801002038B5074D04460846114600223B
:104AB0002A601A46FBF7EEFF431C02D12B6803B1B4
:104AC000236038BD5801002038B5074D044608461C
:104AD000114600222A601A46FBF798FF431C02D1B8
:104AE0002B6803B1236038BD58010020F8B500BF22
:104AF000F8BC08BC9E467047F8B500BFF8BC08BCBF
:044B00009E46704716
:104B040043524320253032582025303258000000CB
:104B14002530325820000000253032580A000000A9
:104B24004F4B0000626C6F636B206372632065728D
:104B34007220676F7420253032582063616C6320C3
:104B4400253032580A00000067657420626C6F6378
:104B54006B20657272000000535441525420544833
:104B64004520415050000000636C656172206D6502
:104B74006D206E6F7420737563636573730000003A
:104B840077726F6E67206372632068656164657213
:104B9400000000004E6F206461746100000000009A
:104BA40000000000010203040607080900000000D9
:104BB4000102030402030405060708090A0B0C0D8D
:104BC4000E0F10100102030405060708090A0B0C56
:104BD4000D0E0F1010000020000000000000000067
:104BE40000000000000000000000000000000000C1
:104BF40000000000000000000000000000000000B1
:104C040000000000000000000000000000000000A0
:104C14000000000000000000000000000000000090
:104C24000000000000000000000000000000000080
:104C34000000000000000000232D302B2000686CD1
:104C44004C006566674546470030313233343536AB
:104C540037383941424344454600303132333435E4
:0C4C640036373839616263646566000011
:044C7000C501000872
:044C7400A101000892
:104C780000127A001000000001000000100000205F
:104C880000000000FC4B00081C4C0008DC4B00082E
:104C9800000000000000000000000000000000000C
:104CA80000000000000000000000000000000000FC
:104CB80000000000000000000000000000000000EC
:104CC80000000000000000000000000000000000DC
:104CD80000000000000000000000000000000000CC
:0400000508000B41A3
:00000001FF
