:020000040800F2
:106000000000012075650008FD64000803650008B4
:10601000096500080F65000815650008000000000C
:106020000000000000000000000000001B650008E8
:106030002965000800000000376500084565000874
:10604000C5650008C5650008C5650008C565000888
:10605000C5650008C5650008C5650008C565000878
:10606000C5650008C5650008C5650008C565000868
:10607000C5650008C5650008C5650008C565000858
:10608000C5650008C5650008C5650008C565000848
:10609000C5650008C5650008C5650008C565000838
:1060A000C5650008C5650008C5650008C565000828
:1060B000C5650008C5650008C5650008C565000818
:1060C000C5650008C5650008C5650008C565000808
:1060D000C5650008C5650008C5650008C5650008F8
:1060E000C5650008C5650008C5650008C5650008E8
:1060F000C5650008C5650008C5650008C5650008D8
:10610000C56500080000000000000000C56500082B
:10611000C5650008C5650008C5650008C5650008B7
:10612000C5650008C5650008C5650008C5650008A7
:10613000C5650008C56500080000000000000000FB
:10614000C5650008C5650008C565000800000000B9
:10615000000000000000000000000000000000003F
:10616000C5650008C5650008C5650008C565000867
:10617000C5650008C5650008C5650008C565000857
:10618000C5650008C56500080000000000000000AB
:04619000C5650008D9
:1061940010B5054C237833B9044B13B10448AFF35D
:1061A40000800123237010BD0C00002000000000BB
:1061B400708D000808B5034B1BB103490348AFF3C6
:1061C400008008BD0000000010000020708D000851
:1061D40080B500AF72B600BF0B4B0C4A9A6062B632
:1061E40000BF00F0EFF900F013F800F0B3F800F08E
:1061F4007DF820214FF0904000F0F6FC4FF4FA6057
:1062040000F046FAF5E700BF00ED00E0006000088A
:1062140080B5A6B000AF07F170032822002118460C
:1062240002F09CFD07F15C0300221A605A609A6038
:10623400DA601A613B1D58220021184602F08EFDD7
:1062440002233B670123FB671023C7F88030022336
:10625400C7F888304FF40043C7F88C304FF4E0138C
:10626400C7F890300023C7F8943007F1700318463C
:1062740000F0D4FC0346002B14BF01230023DBB23F
:10628400002B01D000F0CCF80F23FB6502233B6602
:1062940000237B664FF48063BB660023FB6607F133
:1062A4005C030221184601F00DFD0346002B14BFC8
:1062B40001230023DBB2002B01D000F0B1F802234C
:1062C4007B6000233B613B1D184601F031FF034610
:1062D400002B14BF01230023DBB2002B01D000F0FC
:1062E4009FF800BF9837BD4680BD000080B500AF61
:1062F400164B174A1A60154B4FF461225A60134B20
:1063040000229A60114B0022DA60104B00221A61BD
:106314000E4B0C225A610D4B00229A610B4B00224A
:10632400DA610A4B00221A62084B00225A620748BB
:1063340002F01CF90346002B14BF01230023DBB237
:10634400002B01D000F06CF800BF80BD28000020B5
:106354000044004080B58AB000AF07F11403002266
:106364001A605A609A60DA601A612B4B5B692A4A98
:1063740043F400235361284B5B6903F400233B611E
:106384003B69254B5B69244A43F480035361224BE8
:106394005B6903F48003FB60FB681F4B5B691E4A67
:1063A40043F4003353611C4B5B6903F40033BB605B
:1063B400BB68194B5B69184A43F480235361164B3D
:1063C4005B6903F480237B607B68002220214FF00B
:1063D400904000F0F1FB4FF400537B614FF4041341
:1063E400BB610023FB6107F1140319460B4800F05D
:1063F40059FA20237B610123BB610023FB61002345
:106404003B6207F1140319464FF0904000F04AFA3A
:1064140000BF2837BD4680BD001002400008004878
:1064240080B400AF72B600BFFEE7000080B582B052
:1064340000AF0F4B9B690E4A43F0010393610C4B71
:106444009B6903F001037B607B68094BDB69084AA5
:1064540043F08053D361064BDB6903F080533B6008
:106464003B68072000F0EAF900BF0837BD4680BD4D
:106474000010024080B58AB000AF786007F11403C1
:1064840000221A605A609A60DA601A617B681B689D
:10649400174A934228D1174BDB69164A43F4003359
:1064A400D361144BDB6903F400333B613B69114B4B
:1064B4005B69104A43F4003353610E4B5B6903F488
:1064C4000033FB60FB680C237B610223BB61002368
:1064D400FB6100233B6207237B6207F11403194627
:1064E4004FF0904000F0DEF900BF2837BD4680BD74
:1064F400004400400010024080B400AFFEE780B4C6
:1065040000AFFEE780B400AFFEE780B400AFFEE763
:1065140080B400AFFEE780B400AF00BFBD465DF8B5
:10652400047B704780B400AF00BFBD465DF8047BB8
:10653400704780B400AF00BFBD465DF8047B704770
:1065440080B500AF00F084F800BF80BD80B400AF18
:10655400064BD3F88830054A43F47003C2F88830F8
:1065640000BFBD465DF8047B704700BF00ED00E04E
:10657400DFF834D00D480E490E4A002302E0D45807
:10658400C4500433C4188C42F9D30B4A0B4C002377
:1065940001E013600432A242FBD3FFF7D7FF02F0FD
:1065A400B9FBFFF715FEFEE7000001200000002004
:1065B4000C000020C88D00080C000020B000002052
:1065C400FEE7000080B500AF084B1B68074A43F0A4
:1065D40010031360032000F031F9002000F008F8E4
:1065E400FFF724FF0023184680BD00BF00200240AF
:1065F40080B582B000AF7860124B1A68124B1B78DA
:1066040019464FF47A73B3FBF1F3B2FBF3F3184674
:1066140000F03BF90346002B01D001230EE07B6818
:106624000F2B0AD8002279684FF0FF3000F011F9DF
:10663400064A7B681360002300E0012318460837EC
:10664400BD4680BD0000002008000020040000209A
:1066540080B400AF064B1B781A46064B1B681344E4
:10666400044A136000BFBD465DF8047B704700BF59
:1066740008000020AC00002080B400AF034B1B686E
:106684001846BD465DF8047B704700BFAC0000208F
:1066940080B584B000AF7860FFF7EEFFB8607B6828
:1066A400FB60FB68B3F1FF3F05D00A4B1B781A4629
:1066B400FB681344FB6000BFFFF7DEFF0246BB68C4
:1066C400D31AFA689A42F7D800BF00BF1037BD4604
:1066D40080BD00BF0800002080B485B000AF7860A2
:1066E4007B6803F00703FB600C4BDB68BB60BA6894
:1066F4004FF6FF031340BB60FB681A02BB681343E9
:1067040043F0BF6343F40033BB60044ABB68D36007
:1067140000BF1437BD465DF8047B704700ED00E010
:1067240080B400AF044BDB681B0A03F00703184670
:10673400BD465DF8047B704700ED00E080B483B093
:1067440000AF03463960FB7197F90730002B0ADB71
:106754003B68DAB20C4997F907301201D2B20B4404
:1067640083F800230AE03B68DAB20849FB7903F0B6
:106774000F03043B1201D2B20B441A7600BF0C374C
:10678400BD465DF8047B704700E100E000ED00E0E9
:1067940080B489B000AFF860B9607A60FB6803F038
:1067A4000703FB61FB69C3F10703042B28BF042320
:1067B400BB61FB690433062B02D9FB69033B00E090
:1067C40000237B614FF0FF32BB6902FA03F3DA4323
:1067D400BB681A407B699A404FF0FF317B6901FA2C
:1067E40003F3D9437B680B40134318462437BD4653
:1067F4005DF8047B7047000080B582B000AF78601C
:106804007B68013BB3F1807F01D301230FE00A4A87
:106814007B68013B53600F214FF0FF30FFF78EFF81
:10682400054B00229A60044B07221A600023184685
:106834000837BD4680BD00BF10E000E080B582B0DF
:1068440000AF78607868FFF747FF00BF0837BD46A0
:1068540080BD80B586B000AF0346B9607A60FB7333
:1068640000237B61FFF75CFF78617A68B968786917
:10687400FFF78EFF024697F90F3011461846FFF7CF
:106884005DFF00BF1837BD4680BD80B582B000AF44
:1068940078607868FFF7B0FF034618460837BD46AE
:1068A40080BD000080B487B000AF786039600023F9
:1068B4007B6160E13B681A6801217B6901FA03F39B
:1068C4001340FB60FB68002B00F052813B685B685F
:1068D40003F00303012B05D03B685B6803F003035B
:1068E400022B30D17B689B683B617B695B00032290
:1068F40002FA03F3DB433A6913403B613B68DA680D
:106904007B695B0002FA03F33A6913433B617B68DA
:106914003A699A607B685B683B6101227B6902FA91
:1069240003F3DB433A6913403B613B685B681B0933
:1069340003F001027B6902FA03F33A6913433B61F2
:106944007B683A695A603B685B6803F00303032B76
:1069540017D07B68DB683B617B695B00032202FA2A
:1069640003F3DB433A6913403B613B689A687B69F4
:106974005B0002FA03F33A6913433B617B683A69AB
:10698400DA603B685B6803F00303022B23D17B6965
:10699400DA087B68083253F822303B617B6903F0E4
:1069A40007039B000F2202FA03F3DB433A69134007
:1069B4003B613B681A697B6903F007039B0002FA99
:1069C40003F33A6913433B617B69DA087B68083255
:1069D400396943F822107B681B683B617B695B0063
:1069E400032202FA03F3DB433A6913403B613B6839
:1069F4005B6803F003027B695B0002FA03F33A6904
:106A040013433B617B683A691A603B685B6803F433
:106A14004033002B00F0AC805E4B9B695D4A43F031
:106A2400010393615B4B9B6903F00103BB60BB688B
:106A3400594A7B699B08023352F823303B617B69D6
:106A440003F003039B000F2202FA03F3DB433A69CA
:106A540013403B617B68B3F1904F25D07B684F4A6C
:106A640093421FD07B684E4A934219D07B684D4AAB
:106A7400934213D07B684C4A93420DD07B684B4AB7
:106A8400934207D07B684A4A934201D106230CE023
:106A940007230AE0052308E0042306E0032304E0B7
:106AA400022302E0012300E000237A6902F00302DA
:106AB400920093403A6913433B6137497B699B08D1
:106AC40002333A6941F823203A4B1B683B61FB6867
:106AD400DB433A6913403B613B685B6803F48033F2
:106AE400002B03D03A69FB6813433B61314A3B698D
:106AF4001360304B5B683B61FB68DB433A691340CE
:106B04003B613B685B6803F40033002B03D03A69B4
:106B1400FB6813433B61274A3B695360254B9B68E1
:106B24003B61FB68DB433A6913403B613B685B684C
:106B340003F48013002B03D03A69FB6813433B61D1
:106B44001C4A3B6993601B4BDB683B61FB68DB437E
:106B54003A6913403B613B685B6803F40013002B04
:106B640003D03A69FB6813433B61124A3B69D36023
:106B74007B6901337B613B681A687B6922FA03F302
:106B8400002B7FF497AE00BF00BF1C37BD465DF8F5
:106B9400047B7047001002400000014000040048DC
:106BA40000080048000C0048001000480014004889
:106BB400001800480004014080B483B000AF78603E
:106BC4000B467B8013467B707B78002B03D07A883E
:106BD4007B689A6102E07A887B689A6200BF0C370E
:106BE400BD465DF8047B704780B485B000AF786023
:106BF4000B467B807B685B69FB607A88FB6813408B
:106C04001A04FB68D9437B880B401A437B689A615A
:106C140000BF1437BD465DF8047B704780B5ADF501
:106C2400027D00AF07F50273A3F50173186007F541
:106C34000273A3F501731B68002B02D1012301F039
:106C44003AB807F50273A3F501731B681B6803F0D8
:106C54000103002B00F06F81B54B5B6803F00C035C
:106C6400042B0CD0B24B5B6803F00C03082B5CD1F3
:106C7400AF4B5B6803F4C033B3F5803F55D14FF499
:106C84000033C7F8F431D7F8F43193FAA3F3C7F813
:106C9400F031D7F8F031B3FA83F3DBB25B09DBB23E
:106CA40043F00103DBB2012B02D1A14B1B6815E0B9
:106CB4004FF40033C7F8EC31D7F8EC3193FAA3F36F
:106CC400C7F8E8314FF40033C7F8E431D7F8E431BA
:106CD40093FAA3F3C7F8E031954B5B6A4FF40032A3
:106CE400C7F8DC21D7F8DC2192FAA2F2C7F8D82140
:106CF400D7F8D821B2FA82F2D2B242F02002D2B24C
:106D040002F01F02012101FA02F21340002B00F0ED
:106D1400118107F50273A3F501731B685B68002BEF
:106D240040F00881012300F0C6BF07F50273A3F504
:106D340001731B685B68B3F5803F06D17C4B1B680D
:106D44007B4A43F48033136036E007F50273A3F5FE
:106D540001731B685B68002B0CD1754B1B68744A6C
:106D640023F480331360724B1B68714A23F480232D
:106D7400136021E007F50273A3F501731B685B68D8
:106D8400B3F5A02F0CD16A4B1B68694A43F48023E6
:106D94001360674B1B68664A43F4803313600BE04F
:106DA400634B1B68624A23F480331360604B1B6897
:106DB4005F4A23F48023136007F50273A3F501737C
:106DC4001B685B68002B59D0FFF756FCC7F800021C
:106DD4000AE0FFF751FC0246D7F80032D31A642BBD
:106DE40002D9032300F067BF4FF40033C7F8D4314E
:106DF400D7F8D43193FAA3F3C7F8D031D7F8D03108
:106E0400B3FA83F3DBB25B09DBB243F00103DBB219
:106E1400012B02D1464B1B6815E04FF40033C7F831
:106E2400CC31D7F8CC3193FAA3F3C7F8C8314FF477
:106E34000033C7F8C431D7F8C43193FAA3F3C7F8C1
:106E4400C0313B4B5B6A4FF40032C7F8BC21D7F822
:106E5400BC2192FAA2F2C7F8B821D7F8B821B2FA45
:106E640082F2D2B242F02002D2B202F01F02012119
:106E740001FA02F21340002BABD05CE0FFF7FCFBFD
:106E8400C7F800020AE0FFF7F7FB0246D7F8003222
:106E9400D31A642B02D9032300F00DBF4FF400333F
:106EA400C7F8B431D7F8B43193FAA3F3C7F8B031C3
:106EB400D7F8B031B3FA83F3DBB25B09DBB243F04A
:106EC4000103DBB2012B02D1194B1B6815E04FF40F
:106ED4000033C7F8AC31D7F8AC3193FAA3F3C7F851
:106EE400A8314FF40033C7F8A431D7F8A43193FA8A
:106EF400A3F3C7F8A0310E4B5B6A4FF40032C7F816
:106F04009C21D7F89C2192FAA2F2C7F89821D7F8CD
:106F14009821B2FA82F2D2B242F02002D2B202F046
:106F24001F02012101FA02F21340002BABD102E04F
:106F34000010024000BF07F50273A3F501731B683C
:106F44001B6803F00203002B00F07F81A74B5B68F2
:106F540003F00C03002B0CD0A44B5B6803F00C0370
:106F6400082B73D1A14B5B6803F4C033B3F5004F16
:106F74006CD10223C7F89431D7F8943193FAA3F370
:106F8400C7F89031D7F89031B3FA83F3DBB25B09D9
:106F9400DBB243F00103DBB2012B02D1934B1B683C
:106FA40013E00223C7F88C31D7F88C3193FAA3F39A
:106FB400C7F888310223C7F88431D7F8843193FAAB
:106FC400A3F3C7F88031894B5B6A0222C7F87C219E
:106FD400D7F87C2192FAA2F2C7F87821D7F8782161
:106FE400B2FA82F2D2B242F02002D2B202F01F020E
:106FF400012101FA02F21340002B0AD007F50273B3
:10700400A3F501731B68DB68012B02D0012300F098
:1070140052BE764B1B6823F0F80207F50273A3F502
:1070240001731B681B69F821C7F87411D7F8741130
:1070340091FAA1F1C7F87011D7F87011B1FA81F182
:10704400C9B28B40694913430B60FEE007F5027334
:10705400A3F501731B68DB68002B00F08880012313
:10706400C7F86C31D7F86C3193FAA3F3C7F86831D9
:10707400D7F86831B3FA83F3DBB203F1845303F531
:1070840084139B001A4601231360FFF7F5FAC7F82F
:1070940000020AE0FFF7F0FA0246D7F80032D31AEA
:1070A400022B02D9032300F006BE0223C7F8643181
:1070B400D7F8643193FAA3F3C7F86031D7F8603195
:1070C400B3FA83F3DBB25B09DBB243F00103DBB257
:1070D400012B02D1454B1B6813E00223C7F85C3136
:1070E400D7F85C3193FAA3F3C7F858310223C7F8F1
:1070F4005431D7F8543193FAA3F3C7F850313B4BCA
:107104005B6A0222C7F84C21D7F84C2192FAA2F20A
:10711400C7F84821D7F84821B2FA82F2D2B242F035
:107124002002D2B202F01F02012101FA02F213403E
:10713400002BAFD02D4B1B6823F0F80207F5027328
:10714400A3F501731B681B69F821C7F84411D7F82C
:10715400441191FAA1F1C7F84011D7F84011B1FADE
:1071640081F1C9B28B40214913430B606DE00123C7
:10717400C7F83C31D7F83C3193FAA3F3C7F8383158
:10718400D7F83831B3FA83F3DBB203F1845303F550
:1071940084139B001A4600231360FFF76DFAC7F8A7
:1071A40000020AE0FFF768FA0246D7F80032D31A61
:1071B400022B02D9032300F07EBD0223C7F8343129
:1071C400D7F8343193FAA3F3C7F83031D7F8303114
:1071D400B3FA83F3DBB25B09DBB243F00103DBB246
:1071E400012B05D1014B1B6816E000BF00100240C3
:1071F4000223C7F82C31D7F82C3193FAA3F3C7F83C
:1072040028310223C7F82431D7F8243193FAA3F3A1
:10721400C7F82031BF4B5B6A0222C7F81C21D7F89C
:107224001C2192FAA2F2C7F81821D7F81821B2FA51
:1072340082F2D2B242F02002D2B202F01F02012145
:1072440001FA02F21340002BACD107F50273A3F547
:1072540001731B681B6803F00803002B00F0138103
:1072640007F50273A3F501731B685B69002B7CD0DF
:107274000123C7F81431D7F8143193FAA3F3C7F8EC
:107284001031D7F81031B3FA83F3DBB21A46A24BAC
:1072940013449B001A4601231360FFF7EDF9C7F866
:1072A40000020AE0FFF7E8F90246D7F80032D31AE1
:1072B400022B02D9032300F0FEBC0223C7F80C31D1
:1072C400D7F80C3193FAA3F207F50273A3F5807390
:1072D4001A6007F50273A3F5827302221A6007F598
:1072E4000273A3F582731B6893FAA3F207F5027382
:1072F400A3F584731A6007F50273A3F5867302225B
:107304001A6007F50273A3F586731B6893FAA3F258
:1073140007F50273A3F588731A607E4B5A6A07F562
:107324000273A3F58A730221196007F50273A3F5AA
:107334008A731B6893FAA3F107F50273A3F58C73A0
:10734400196007F50273A3F58C731B68B3FA83F312
:10735400DBB243F06003DBB203F01F03012101FA47
:1073640003F31340002B9DD08DE007F50273A3F5C2
:107374008E7301221A6007F50273A3F58E731B68DE
:1073840093FAA3F207F50273A3F590731A6007F555
:107394000273A3F590731B68B3FA83F3DBB21A4646
:1073A4005D4B13449B001A4600231360FFF764F9F6
:1073B400C7F800020AE0FFF75FF90246D7F8003287
:1073C400D31A022B02D9032300F075BC07F502730C
:1073D400A3F5927302221A6007F50273A3F5927360
:1073E4001B6893FAA3F207F50273A3F594731A606A
:1073F40007F50273A3F5967302221A6007F5027368
:10740400A3F596731B6893FAA3F207F50273A3F529
:1074140098731A6007F50273A3F59A7302221A602F
:1074240007F50273A3F59A731B6893FAA3F207F5A1
:107434000273A3F59C731A60364B5A6A07F50273FC
:10744400A3F59E730221196007F50273A3F59E73D9
:107454001B6893FAA3F107F50273A3F5A0731960EF
:1074640007F50273A3F5A0731B68B3FA83F3DBB2C9
:1074740043F06003DBB203F01F03012101FA03F3BD
:107484001340002B97D107F50273A3F501731B6812
:107494001B6803F00403002B00F0A581002387F888
:1074A40007321C4BDB6903F08053002B16D1194BB8
:1074B400DB69184A43F08053D361164BDB6903F050
:1074C400805207F50273A3F5FE731A6007F5027381
:1074D400A3F5FE731B68012387F807320F4B1B6863
:1074E40003F48073002B21D10C4B1B680B4A43F42B
:1074F40080731360FFF7C0F8C7F8000210E0FFF7CD
:10750400BBF80246D7F80032D31A642B08D90323F8
:10751400D1E300BF001002402081901000700040B1
:107524008D4B1B6803F48073002BE8D007F50273BE
:10753400A3F501731B689B68012B06D1874B1B6A5B
:10754400864A43F00103136235E007F50273A3F59D
:1075540001731B689B68002B0CD1804B1B6A7F4A0C
:1075640023F0010313627D4B1B6A7C4A23F004035E
:10757400136220E007F50273A3F501731B689B688F
:10758400052B0CD1754B1B6A744A43F00403136238
:10759400724B1B6A714A43F0010313620BE06F4B99
:1075A4001B6A6E4A23F0010313626C4B1B6A6B4A1D
:1075B40023F00403136207F50273A3F501731B6838
:1075C4009B68002B00F08180FFF756F8C7F8000293
:1075D4000BE0FFF751F80246D7F80032D31A41F214
:1075E4008832934201D9032365E307F50273A3F5B7
:1075F400A27302221A6007F50273A3F5A2731B6833
:1076040093FAA3F207F50273A3F5A4731A6007F5BE
:107614000273A3F5A67302221A6007F50273A3F599
:10762400A6731B6893FAA3F207F50273A3F5A87374
:107634001A6007F50273A3F5A8731B68B3FA83F302
:10764400DBB25B09DBB243F00203DBB2022B02D1F3
:10765400424B1B6A13E007F50273A3F5AA730222D7
:107664001A6007F50273A3F5AA731B6893FAA3F2D1
:1076740007F50273A3F5AC731A60384B5B6A07F520
:107684000272A2F5AE720221116007F50272A2F530
:10769400AE72126892FAA2F107F50272A2F5B07204
:1076A400116007F50272A2F5B0721268B2FA82F2A2
:1076B400D2B242F04002D2B202F01F02012101FA1A
:1076C40002F21340002B84D083E0FEF7D5FFC7F805
:1076D40000020BE0FEF7D0FF0246D7F80032D31ABF
:1076E40041F28832934201D90323E4E207F502739D
:1076F400A3F5B27302221A6007F50273A3F5B273FD
:107704001B6893FAA3F207F50273A3F5B4731A6026
:1077140007F50273A3F5B67302221A6007F5027324
:10772400A3F5B6731B6893FAA3F207F50273A3F5E6
:10773400B8731A6007F50273A3F5B8731B68B3FA3C
:1077440083F3DBB25B09DBB243F00203DBB2022B4F
:1077540006D1024B1B6A17E0007000400010024083
:1077640007F50273A3F5BA7302221A6007F50273D0
:10777400A3F5BA731B6893FAA3F207F50273A3F592
:10778400BC731A60B34B5B6A07F50272A2F5BE7252
:107794000221116007F50272A2F5BE72126892FA14
:1077A400A2F107F50272A2F5C072116007F5027228
:1077B400A2F5C0721268B2FA82F2D2B242F040026A
:1077C400D2B202F01F02012101FA02F21340002B8F
:1077D40080D197F80732012B05D19E4BDB699D4A76
:1077E40023F08053D36107F50273A3F501731B687B
:1077F4009B69002B00F05E82964B5B6803F00C03E0
:10780400082B00F01F8207F50273A3F501731B68B0
:107814009B69022B40F0708107F50273A3F5C273D4
:107824004FF080721A6007F50273A3F5C2731B68E8
:1078340093FAA3F207F50273A3F5C4731A6007F56C
:107844000273A3F5C4731B68B3FA83F3DBB203F1C9
:10785400845303F584139B001A4600231360FEF738
:107864000BFFC7F8000209E0FEF706FF0246D7F84F
:107874000032D31A022B01D903231CE207F5027349
:10788400A3F5C6734FF000721A6007F50273A3F5EF
:10789400C6731B6893FAA3F207F50273A3F5C873C2
:1078A4001A6007F50273A3F5C8731B68B3FA83F370
:1078B400DBB25B09DBB243F00103DBB2012B02D183
:1078C400644B1B6827E007F50273A3F5CA734FF0F6
:1078D40000721A6007F50273A3F5CA731B6893FA62
:1078E400A3F207F50273A3F5CC731A6007F50273CC
:1078F400A3F5CE734FF000721A6007F50273A3F577
:10790400CE731B6893FAA3F207F50273A3F5D07341
:107914001A60504B5B6A07F50272A2F5D2724FF0FF
:107924000071116007F50272A2F5D272126892FA20
:10793400A2F107F50272A2F5D472116007F5027282
:10794400A2F5D4721268B2FA82F2D2B242F02002E4
:10795400D2B202F01F02012101FA02F21340002BFD
:1079640082D13C4BDB6A23F00F0207F50273A3F5C7
:1079740001731B685B6A37491343CB62354B5B6801
:1079840023F4761207F50273A3F501731B68196AD1
:1079940007F50273A3F501731B68DB690B432D49DB
:1079A40013434B6007F50273A3F5D6734FF080724F
:1079B4001A6007F50273A3F5D6731B6893FAA3F252
:1079C40007F50273A3F5D8731A6007F50273A3F5DC
:1079D400D8731B68B3FA83F3DBB203F1845303F562
:1079E40084139B001A4601231360FEF745FEC7F873
:1079F400000209E0FEF740FE0246D7F80032D31A2F
:107A0400022B01D9032356E107F50273A3F5DA73B8
:107A14004FF000721A6007F50273A3F5DA731B685E
:107A240093FAA3F207F50273A3F5DC731A6007F562
:107A34000273A3F5DC731B68B3FA83F3DBB25B094F
:107A4400DBB243F00103DBB2012B05D1014B1B6810
:107A54002AE000BF0010024007F50273A3F5DE73AD
:107A64004FF000721A6007F50273A3F5DE731B680A
:107A740093FAA3F207F50273A3F5E0731A6007F50E
:107A84000273A3F5E2734FF000721A6007F50273F4
:107A9400A3F5E2731B6893FAA3F207F50273A3F547
:107AA400E4731A60864B5B6A07F50272A2F5E6720C
:107AB4004FF00071116007F50272A2F5E6721268C8
:107AC40092FAA2F107F50272A2F5E872116007F5C5
:107AD4000272A2F5E8721268B2FA82F2D2B242F0ED
:107AE4002002D2B202F01F02012101FA02F2134075
:107AF400002B3FF47FAFDDE007F50273A3F5EA73D3
:107B04004FF080721A6007F50273A3F5EA731B68DD
:107B140093FAA3F207F50273A3F5EC731A6007F561
:107B24000273A3F5EC731B68B3FA83F3DBB203F1BE
:107B3400845303F584139B001A4600231360FEF755
:107B44009BFDC7F8000209E0FEF796FD0246D7F850
:107B54000032D31A022B01D90323ACE007F50273D8
:107B6400A3F5EE734FF000721A6007F50273A3F5E4
:107B7400EE731B6893FAA3F207F50273A3F5F0738F
:107B84001A6007F50273A3F5F0731B68B3FA83F365
:107B9400DBB25B09DBB243F00103DBB2012B02D1A0
:107BA400474B1B6827E007F50273A3F5F2734FF008
:107BB40000721A6007F50273A3F5F2731B6893FA57
:107BC400A3F207F50273A3F5F4731A6007F50273C1
:107BD400A3F5F6734FF000721A6007F50273A3F56C
:107BE400F6731B6893FAA3F207F50273A3F5F8730F
:107BF4001A60334B5B6A07F50272A2F5FA724FF012
:107C04000071116007F50272A2F5FA72126892FA15
:107C1400A2F107F50272A2F5FC72116007F5027277
:107C2400A2F5FC721268B2FA82F2D2B242F02002D9
:107C3400D2B202F01F02012101FA02F21340002B1A
:107C440082D137E007F50273A3F501731B689B69C2
:107C5400012B01D101232EE0194B5B68C7F8FC31DD
:107C6400174BDB6AC7F8F831D7F8FC3103F4C0329C
:107C740007F50273A3F501731B68DB699A4217D1F8
:107C8400D7F8FC3103F4701207F50273A3F50173FE
:107C94001B681B6A9A420BD1D7F8F83103F00F0224
:107CA40007F50273A3F501731B685B6A9A4201D05E
:107CB400012300E00023184607F50277BD4680BD86
:107CC4000010024080B59EB000AF78603960002398
:107CD4007B677B68002B01D1012362E1904B1B6819
:107CE40003F007033A689A4210D98D4B1B6823F0BE
:107CF40007028B493B6813430B60894B1B6803F0F5
:107D040007033A689A4201D001234AE17B681B6861
:107D140003F00203002B08D0824B5B6823F0F002CF
:107D24007B689B687F4913434B607B681B6803F047
:107D34000103002B00F0DC807B685B68012B3CD1E5
:107D44004FF400333B673B6F93FAA3F3FB66FB6E80
:107D5400B3FA83F3DBB25B09DBB243F00103DBB2BA
:107D6400012B02D16F4B1B680FE04FF40033BB664D
:107D7400BB6E93FAA3F37B664FF400333B663B6E12
:107D840093FAA3F3FB65674B5B6A4FF40032BA6561
:107D9400BA6D92FAA2F27A657A6DB2FA82F2D2B22E
:107DA40042F02002D2B202F01F02012101FA02F2D3
:107DB4001340002B7BD10123F3E07B685B68022B2B
:107DC4003CD14FF000733B653B6D93FAA3F3FB6426
:107DD400FB6CB3FA83F3DBB25B09DBB243F0010360
:107DE400DBB2012B02D14F4B1B680FE04FF0007345
:107DF400BB64BB6C93FAA3F37B644FF000733B64E6
:107E04003B6C93FAA3F3FB63464B5B6A4FF000723F
:107E1400BA63BA6B92FAA2F27A637A6BB2FA82F21A
:107E2400D2B242F02002D2B202F01F02012101FAC2
:107E340002F21340002B3AD10123B2E002233B6348
:107E44003B6B93FAA3F3FB62FB6AB3FA83F3DBB2F3
:107E54005B09DBB243F00103DBB2012B02D1314BEE
:107E64001B680DE00223BB62BB6A93FAA3F37B6237
:107E740002233B623B6A93FAA3F3FB61294B5B6ADF
:107E84000222BA61BA6992FAA2F27A617A69B2FA02
:107E940082F2D2B242F02002D2B202F01F020121D9
:107EA40001FA02F21340002B01D1012379E01D4BAA
:107EB4005B6823F003027B685B681A4913434B60D9
:107EC400FEF7DAFB78670AE0FEF7D6FB02467B6F23
:107ED400D31A41F28832934201D9032361E0114B52
:107EE4005B6803F00C027B685B689B009A42EBD1F1
:107EF4000B4B1B6803F007033A689A4214D2084BF1
:107F04001B6823F0070206493B6813430B60044BCC
:107F14001B6803F007033A689A4205D0012340E046
:107F240000200240001002407B681B6803F0040339
:107F3400002B08D01D4B5B6823F4E0627B68DB6890
:107F44001A4913434B607B681B6803F00803002B3A
:107F540009D0164B5B6823F460527B681B69DB0015
:107F6400124913434B6000F029F801460F4B5B683C
:107F740003F0F003F0223A613A6992FAA2F2FA604D
:107F8400FA68B2FA82F2D2B2D340094AD35C21FA37
:107F940003F3084A1360084B1B681846FEF728FBD6
:107FA400002318467837BD4680BD00BF001002404C
:107FB400888D0008000000200400002080B48BB0ED
:107FC40000AF0023FB610023BB6100237B6200231D
:107FD4007B6100233B622A4B5B68FB61FB6903F016
:107FE4000C03042B02D0082B03D03FE0254B3B624B
:107FF4003FE0FB6903F470134FF47012BA60BA687F
:1080040092FAA2F27A607A68B2FA82F2D2B2D340D9
:108014001D4AD35C7B611A4BDB6A03F00F030F220A
:108024003A613A6992FAA2F2FA60FA68B2FA82F212
:10803400D2B2D340154AD35CBB61FB6903F48033ED
:10804400002B08D00F4ABB69B2FBF3F27B6902FB39
:1080540003F37B6207E00B4ABB69B2FBF3F27B6973
:1080640002FB03F37B627B6A3B6202E0054B3B62EB
:1080740000BF3B6A18462C37BD465DF8047B704749
:108084000010024000127A00A08D0008B08D000894
:1080940080B400AF034B1B681846BD465DF8047BF3
:1080A400704700BF0000002080B582B000AFFFF72A
:1080B400EFFF01460B4B5B6803F4E0634FF4E062AF
:1080C4007A607A6892FAA2F23A603A68B2FA82F274
:1080D400D2B2D340044AD35C21FA03F318460837DA
:1080E400BD4680BD00100240988D000880B582B066
:1080F40000AFFFF7CDFF01460B4B5B6803F4605301
:108104004FF460527A607A6892FAA2F23A603A685E
:10811400B2FA82F2D2B2D340044AD35C21FA03F316
:1081240018460837BD4680BD00100240988D0008EF
:1081340080B592B000AF786000233B640023FB63FA
:10814400002387F847307B681B6803F48033002BD7
:1081540000F0D4804E4BDB6903F08053002B0ED12A
:108164004B4BDB694A4A43F08053D361484BDB698C
:1081740003F08053BB60BB68012387F84730454B4D
:108184001B6803F48073002B18D1424B1B68414ACF
:1081940043F480731360FEF76FFA386408E0FEF767
:1081A4006BFA02463B6CD31A642B01D90323D6E144
:1081B400384B1B6803F48073002BF0D0344B1B6ADC
:1081C40003F44073FB63FB6B002B00F084807B683B
:1081D4005B6803F44073FA6B9A427CD02C4B1B6AA5
:1081E40023F44073FB634FF480333B633B6B93FA9C
:1081F400A3F3FB62FB6AB3FA83F3DBB21A46264BA2
:1082040013449B001A46012313604FF48033BB636D
:10821400BB6B93FAA3F37B637B6BB3FA83F3DBB29D
:108224001A461D4B13449B001A4600231360184A38
:10823400FB6B1362FB6B03F00103002B4BD0FEF7C7
:108244001BFA38640AE0FEF717FA02463B6CD31AAD
:1082540041F28832934201D9032380E10223BB62B5
:10826400BB6A93FAA3F37B6202233B623B6A93FAF1
:10827400A3F3FB61FB69B3FA83F3DBB25B09DBB203
:1082840043F00203DBB2022B08D1014B1B6A0DE061
:108294000010024000700040008190100223BB6176
:1082A400BB6993FAA3F37B619A4B5B6A02223A613E
:1082B4003A6992FAA2F2FA60FA68B2FA82F2D2B297
:1082C40042F04002D2B202F01F02012101FA02F28E
:1082D4001340002BB7D08F4B1B6A23F440727B688A
:1082E4005B688C4913430B6297F84730012B05D127
:1082F400884BDB69874A23F08053D3617B681B6812
:1083040003F00103002B08D0824B1B6B23F0030204
:108314007B689B687F4913430B637B681B6803F08E
:108324000203002B08D07B4B1B6B23F440327B6889
:10833400DB68784913430B637B681B6803F0040311
:10834400002B08D0734B1B6B23F440227B681B6902
:10835400704913430B637B681B6803F02003002BF5
:1083640008D06C4B1B6B23F010027B68DB696949F6
:1083740013430B637B681B6803F40033002B08D0A2
:10838400644B5B6823F480027B685B6D6149134333
:108394004B607B681B6803F04003002B08D05D4BE7
:1083A4001B6B23F020027B681B6A5A4913430B633F
:1083B4007B681B6803F48023002B08D0554B1B6B90
:1083C40023F040027B685B6A524913430B637B686A
:1083D4001B6803F00803002B08D04E4B1B6B23F4DF
:1083E40040127B685B694B4913430B637B681B68D2
:1083F40003F01003002B08D0464B1B6B23F4400200
:108404007B689B69434913430B637B681B6803F4D4
:108414000073002B08D03F4B5B6823F400027B6899
:108424001B6B3C4913434B607B681B6803F0800360
:10843400002B08D0374BDB6A23F4F8727B689B6A05
:1084440034491343CB627B681B6803F48073002BAD
:1084540008D0304BDB6A23F478527B68DB6A2D4901
:108464001343CB627B681B6803F48053002B08D052
:10847400284B1B6B23F480727B685B6B2549134389
:108484000B637B681B6803F40053002B08D0214B5B
:108494001B6B23F400727B681B6C1E4913430B6334
:1084A4007B681B6803F48013002B08D0194B1B6BEB
:1084B40023F080727B689B6B164913430B637B68C4
:1084C4001B6803F40013002B08D0124B1B6B23F022
:1084D40000727B68DB6B0F4913430B637B681B687B
:1084E40003F48003002B08D00A4B1B6B23F4806237
:1084F4007B685B6C074913430B637B681B6803F45D
:108504000003002B0CD0034B1B6B23F400627B682D
:1085140002E000BF001002409B6C134913430B633D
:108524007B681B6803F08073002B08D00E4B1B6B19
:1085340023F400527B68DB6C0B4913430B637B68A9
:108544001B6803F00073002B08D0074B1B6B23F44C
:1085540000427B681B6D044913430B6300231846D8
:108564004837BD4680BD00BF0010024080B582B0D0
:1085740000AF78607B68002B01D1012340E07B6869
:108584009B6F002B06D17B68002283F874207868E7
:10859400FDF770FF7B6824229A677B681B681A6862
:1085A4007B681B6822F001021A60786800F02CF8DE
:1085B4000346012B01D1012322E07B685B6A002B77
:1085C40002D0786800F0F6F97B681B685A687B680B
:1085D4001B6822F490425A607B681B689A687B6827
:1085E4001B6822F02A029A607B681B681A687B6801
:1085F4001B6842F001021A60786800F07DFA0346B5
:1086040018460837BD4680BD80B588B000AF786095
:108614000023BB777B689A687B681B691A437B6875
:108624005B691A437B68DB6913437B617B681B6866
:108634001A68924B13407A68126879690B43136085
:108644007B681B685B6823F440517B68DA687B684D
:108654001B680A435A607B689B697B617B681B6A61
:108664007A6913437B617B681B689B6823F43061E0
:108674007B681B687A690A439A607B681B68804A36
:10868400934220D17F4B1B6B03F00303032B17D8BA
:1086940001A252F823F000BFAD860008B986000895
:1086A400BF860008B38600080123FB77B5E00223E8
:1086B400FB77B2E00423FB77AFE00823FB77ACE061
:1086C4001023FB77A9E07B681B686F4A934224D18F
:1086D4006C4B1B6B03F44033B3F5403F11D0B3F53F
:1086E400403F17D8B3F5003F11D0B3F5003F11D880
:1086F400002B03D0B3F5803F06D00BE00023FB77BB
:108704008BE00223FB7788E00423FB7785E00823D2
:10871400FB7782E01023FB777FE07B681B685B4A72
:10872400934224D1574B1B6B03F44023B3F5402FE2
:1087340011D0B3F5402F17D8B3F5002F11D0B3F5EE
:10874400002F11D8002B03D0B3F5802F06D00BE0F7
:108754000023FB7761E00223FB775EE00423FB77D1
:108764005BE00823FB7758E01023FB7755E07B6838
:108774001B68474A934224D1424B1B6B03F44013BA
:10878400B3F5401F11D0B3F5401F17D8B3F5001F40
:1087940011D0B3F5001F11D8002B03D0B3F5801FFF
:1087A40006D00BE00023FB7737E00223FB7734E0AD
:1087B4000423FB7731E00823FB772EE01023FB77BB
:1087C4002BE07B681B68334A934224D12D4B1B6BEF
:1087D40003F44003B3F5400F11D0B3F5400F17D89D
:1087E400B3F5000F11D0B3F5000F11D8002B03D04F
:1087F400B3F5800F06D00BE00023FB770DE00223D6
:10880400FB770AE00423FB7707E00823FB7704E007
:108814001023FB7701E01023FB777B68DB69B3F55A
:10882400004F6CD1FB7F082B38D801A252F823F0FB
:10883400598800086188000869880008A188000830
:108844006F880008A1880008A1880008A188000892
:1088540077880008FFF728FCB86124E0FFF746FC9E
:10886400B86120E00C4BBB611DE0FFF7A7FBB861CA
:1088740019E04FF40043BB6115E000BFF369FFEF5B
:10888400003801400010024000440040004800400D
:10889400004C00400050004000127A000023BB61ED
:1088A4000123BB7700BFBB69002B75D0BB695A009D
:1088B4007B685B685B081A447B685B68B2FBF3F314
:1088C4009BB23B613B690F2B16D93B69B3F5803FE3
:1088D40012D23B699BB223F00F03FB813B695B0817
:1088E4009BB203F007039AB2FB891343FB817B68B5
:1088F4001B68FA89DA604FE00123BB774CE0FB7F09
:10890400082B28D801A252F823F000BF35890008AB
:108914003D890008458900085B8900084B890008E7
:108924005B8900085B8900085B890008538900089B
:10893400FFF7BAFBB86113E0FFF7D8FBB8610FE0AB
:108944001B4BBB610CE0FFF739FBB86108E04FF447
:108954000043BB6104E00023BB610123BB7700BF7C
:10896400BB69002B18D07B685B685A08BB691A4442
:108974007B685B68B2FBF3F39BB23B613B690F2BF3
:1089840008D93B69B3F5803F04D27B681B683A6918
:10899400DA6001E00123BB777B6800225A667B68BA
:1089A40000229A66BB7F18462037BD4680BD00BFB3
:1089B40000127A0080B483B000AF78607B685B6A91
:1089C40003F00103002B0AD07B681B685B6823F467
:1089D40000317B689A6A7B681B680A435A607B682B
:1089E4005B6A03F00203002B0AD07B681B685B6898
:1089F40023F480317B68DA6A7B681B680A435A6017
:108A04007B685B6A03F00403002B0AD07B681B6855
:108A14005B6823F480217B681A6B7B681B680A43BC
:108A24005A607B685B6A03F00803002B0AD07B68FA
:108A34001B685B6823F400417B685A6B7B681B6886
:108A44000A435A607B685B6A03F01003002B0AD068
:108A54007B681B689B6823F480517B689A6B7B68F6
:108A64001B680A439A607B685B6A03F02003002B4F
:108A74000AD07B681B689B6823F400517B68DA6B1F
:108A84007B681B680A439A607B685B6A03F0400357
:108A9400002B1AD07B681B685B6823F480117B6809
:108AA4001A6C7B681B680A435A607B681B6CB3F5BD
:108AB400801F0AD17B681B685B6823F4C0017B6854
:108AC4005A6C7B681B680A435A607B685B6A03F0D4
:108AD4008003002B0AD07B681B685B6823F40021A9
:108AE4007B689A6C7B681B680A435A6000BF0C372A
:108AF400BD465DF8047B704780B586B002AF7860F0
:108B04007B680022C3F88020FDF7B6FDF8607B681F
:108B14001B681B6803F00803082B0ED16FF07E431B
:108B24000093FB6800224FF40011786800F02DF8E0
:108B34000346002B01D0032323E07B681B681B68DA
:108B440003F00403042B0ED16FF07E430093FB6803
:108B540000224FF48001786800F017F80346002BD8
:108B640001D003230DE07B6820229A677B682022D2
:108B7400DA677B6800221A667B68002283F8742017
:108B8400002318461037BD4680BD80B59CB000AFA9
:108B9400F860B9603B601346FB71A5E0BB6FB3F1AD
:108BA400FF3F00F0A180FDF767FD02463B68D31A42
:108BB400BA6F9A4202D3BB6F002B3ED1FB681B688D
:108BC4003B653B6D53E8003FFB64FB6C23F4D073BF
:108BD4007B66FB681B681A467B6EFB65BA65B96DDC
:108BE400FA6D41E800237B657B6D002BE6D1FB68C1
:108BF4001B680833FB63FB6B53E8003FBB63BB6B31
:108C040023F001033B66FB681B6808333A6EBA64C1
:108C14007B64796CBA6C41E800233B643B6C002BA9
:108C2400E5D1FB6820229A67FB682022DA67FB689B
:108C3400002283F87420032367E0FB681B681B6829
:108C440003F00403002B4FD0FB681B68DB6903F4BB
:108C54000063B3F5006F47D1FB681B684FF40062F3
:108C64001A62FB681B68BB62BB6A53E8003F7B6205
:108C74007B6A23F4D073FB66FB681B681A46FB6EA1
:108C84007B633A63396B7A6B41E80023FB62FB6ACE
:108C9400002BE6D1FB681B6808337B617B6953E8D2
:108CA400003F3B613B6923F00103BB66FB681B6823
:108CB4000833BA6E3A62FB61F9693A6A41E8002303
:108CC400BB61BB69002BE5D1FB6820229A67FB6876
:108CD4002022DA67FB682022C3F88020FB68002288
:108CE40083F87420032310E0FB681B68DA69BB680F
:108CF4001340BA689A420CBF01230023DBB21A4620
:108D0400FB799A423FF44AAF002318467037BD46B8
:108D140080BD000070B50D4D0D4C641BA4100026E1
:108D2400A64209D10B4D0C4C00F020F8641BA41092
:108D34000026A64205D170BD55F8043B984701367C
:108D4400EEE755F8043B98470136F2E7C08D00087A
:108D5400C08D0008C08D0008C48D0008024403467D
:108D6400934200D1704703F8011BF9E7F8B500BF3F
:108D7400F8BC08BC9E467047F8B500BFF8BC08BCF8
:048D84009E46704750
:108D880000000000000000000102030406070809B3
:108D98000000000001020304020304050607080995
:108DA8000A0B0C0D0E0F101001020304050607082C
:088DB800090A0B0C0D0E0F104F
:048DC000B96100088D
:048DC40095610008AD
:0C8DC80000127A00100000000100000002
:040000050800657515
:00000001FF
